:10000000C7C100000C942A2E0C94FF2D0C94D42D03
:100010000C94A92D0C947E2D0C94532D0C94282D0A
:100020000C94FD2C0C94EA310C94EA310C94EA31D6
:10003000E0C100000C943623DCC10000DAC10000EE
:10004000D8C100000C947B32D4C10000D2C10000A2
:10005000D0C10000CEC10000CCC100000C94432CE4
:10006000C8C100000C94382A0C940F2AC2C10000A9
:10007000C0C10000BEC10000BCC10000BAC1000088
:100080000C944E32B6C10000B4C10000B2C10000F1
:10009000B0C10000AEC10000ACC100000C94A126AC
:1000A000A8C10000A6C100000C942132A2C100002A
:1000B000A0C100000C9445269CC100000C94F431B2
:1000C00098C1000096C100000C94B3230C94E6295B
:1000D0000C94BD298EC100008CC100008AC10000B3
:1000E00088C100004B02CF0CCF0CCF0CCF0CCF0C33
:1000F000CF0CCF0CCF0CCF0CCF0CCF0CCF0CCF0C28
:10010000CF0C9D02CF0CAE02F8021D03250378032D
:10011000BC03BF03C703FF036804CF0CCF0CCF0C95
:100120009704CF0CCF0CCF0CCF0CCF0C7305CF0C9A
:10013000CF0CCF0C8305CF0CCF0CCF0CCF0CCF0C3A
:10014000CF0CCF0CCF0CCF0CCF0CCF0CCF0CCF0CD7
:100150009705CF0CCF0CCF0CA305CF0CA905DE065D
:10016000EB06CF0CCF0CCF0CF406AC0795078A0931
:10017000CF0CF409A009CF0CCF0CCF0C0C0A060C45
:100180001D0C340C3A0C420C470CA60C7F2982291A
:10019000712975297B29B92986298A2990299429C9
:1001A00098299E29A229A629B929AC29B029B429C0
:1001B0001B2B202B252B2F2B392BB22B432B4B2BDF
:1001C000532B5D2B672B712B802B8A2BB22B942BFF
:1001D0009E2BA82BCF2CD72CA12CA92CB52CC22C14
:1001E000E32CF02C036EDB363D9A9999993DABAA2E
:1001F000AA2A3E000000803F084AD73B3BCE016E52
:1002000084BCBFFDC12F3D6C74319ABD56833DDA6D
:100210003D00C77F11BED9E4BB4C3E916BAAAABE7C
:10022000000000803F072C7AA5BA6CC590DA3B939A
:1002300065FC8BBC53F810FD3C5692834DBD879DE9
:100240003AB63DCBC9BF5BBE73DA0FC93F05A84CB8
:10025000CDB2D44EB93836A9020C50B9918688086F
:100260003CA6AAAA2ABE000000803F000000210090
:10027000240027002A002D00300033000101000077
:10028000040107010A0100002200250028002B00BC
:100290002E003100340002010000050108010B01AD
:1002A000000020002300260029002C002F0032002F
:1002B0000001000003010601090105050505070508
:1002C00008080808020202020A0A080804040404D2
:1002D00001010101010101010303030303030303FE
:1002E000040707070C0C0C0C0C0C0C0C020202028D
:1002F00006060606060606060B0B0B0B0B0B0B0B76
:100300000102102020080810204010204080020127
:10031000020108040201010204081020408080400C
:10032000201008040201800402018040201008040B
:1003300002010804020101020408102040800102A9
:1003400004081020408000000A0B02090C0D0E0862
:10035000070304010000000000000000000000008E
:10036000000000000000000000000000000000008D
:10037000000012111000000000000000000000004A
:1003800000000000000000000000000016531153A0
:1003900011241FBECFEFD1E2DEBFCDBF00E00CBF06
:1003A00017E0A0E0B2E0E2E6F8EB00E00BBF02C02D
:1003B00007900D92A034B107D9F72FE0A0E4B7E081
:1003C00001C01D92A239B207E1F711E0C7ECD1E0FC
:1003D00000E006C021970109802FFE010E94F35919
:1003E000C63CD10780E00807A9F70E944F400C9453
:1003F000205C06CE4F925F926F927F928F929F9277
:10040000AF92BF92CF92DF92EF92FF920F931F9322
:10041000CF93DF93CDB7DEB728970FB6F894DEBF42
:100420000FBECDBF182F80911D028E7F80931D02BD
:100430000E94372C6093890870938A0880938B08F8
:1004400090938C0881E080938408912F9B7F80910A
:10045000200F913679F090916C0F98130BC08FE6B6
:1004600094E00E9434376AE070E08091200F0E948F
:100470009A385FC080936C0F412F50E0FA01BB9710
:10048000E435F10510F00C94CF0C8827EE58FF4F9F
:100490008F4F0C94F35980911A028F3F11F40C94F2
:1004A000D80C817F80931A0289E894E00E949038EA
:1004B0001092550710925807109257078FE090E05E
:1004C00090935A0780935907109225091092240996
:1004D0000E943B398091560790E08C549F4F0E94B8
:1004E000B73868EE73E080E090E00E94FF2BE09167
:1004F000460FF0E0CF01880F991FE80FF91FEA5867
:10050000F24F80818F7B808386E680931C0289E096
:100510000E94B53380919A08816080939A080E9466
:10052000372C60939B0870939C0880939D08909350
:100530009E080E947B3C0C94D80C8EE894E00E94AC
:1005400034376AE070E08091220F0E949A386091FF
:10055000220F80E30E94892A0C94D80C8FEA94E041
:100560000E9434378091220F8C34F1F48091240F53
:1005700090E0982F88272091250F820F911D90934E
:100580002802809327028091270F90E0982F8827D8
:100590002091280F820F911D9093260280932502AF
:1005A00081ED94E00E9490388091220F823511F005
:1005B0000C94D80C8091240F90E0982F88272091DC
:1005C000250F820F911D90932C0280932B02809116
:1005D000270F90E0982F88272091280F820F911DD8
:1005E00090932A028093290286ED94E00C94CC0C1F
:1005F0008CED94E00E9434376091220F70E0762FEA
:1006000066278091230F680F711D072E000C880B41
:10061000990B0E94D45520E030E048EC52E40E944F
:10062000F3576093210270932202809323029093E8
:1006300024020E94DD360C94D80C89EF94E00E94CD
:1006400090380E94363C0C94D80C8BE195E00E94C7
:10065000343760E170E08091220F0E949A388091D7
:10066000220F8C3449F48091250F90E0909334024E
:10067000809333020C94D80C823549F48091250F75
:1006800090E090932E0280932D020C94D80C823728
:1006900011F00C94D80C6091240F70E080E090E091
:1006A0000E94D25520E030E040E853E40E943356E7
:1006B0006B017C018091250F682F70E080E090E055
:1006C0000E94D4559B01AC01C701B6010E944D5751
:1006D00020E030E048EC52E40E94F35760932F0290
:1006E0007093300280933102909332020C94D80CB4
:1006F0008EE395E00E9490388FEB8093900E83E715
:100700008093910E83E08093920E809133029091BA
:1007100034029093930E8093940E1092950E8091D4
:100720002D0290912E029093960E8093970E109228
:10073000980E20E030E048EC52E460912F02709176
:10074000300280913102909132020E9433566B0147
:100750007C0120E030E040E85BE30E9433560E94D9
:1007600060586093990EC701B6010E94605860936B
:100770009A0E8AE00C94030C84E595E002C089E7A8
:1007800095E00E94343760E170E00C94310C83E90D
:1007900095E00E9434376091220F70E080E090E095
:1007A00040E10E94193686EB95E00E94343743E21F
:1007B000E42E4FE0F42E8E010F5F1F4F6E0146E0D6
:1007C000C40ED11C5801D7016D917D01F8016193D0
:1007D0008F0170E080E090E040E10E94193688EBE4
:1007E00095E00E9434370C151D0569F70E940B3601
:1007F000B5018091220F0E94523A0C94D80C8AEBDA
:1008000095E00E9434376091220F70E080E090E024
:1008100040E10E94193684E596E00E9434375E017B
:10082000F6E0AF0EB11CAE014F5F5F4F6A0103E20D
:100830001FE075018091220F90E097012A193B0972
:10084000281739070CF5D8016D918D0170E080E013
:1008500090E04AE00E94193685E992E00E94343720
:10086000F801608170E080E090E04AE00E94193673
:10087000F80131978081D7018D937D01F801808146
:10088000D6018D936D01D6CF0E940B361091220FA9
:10089000133008F413E00E94663381E08093540E15
:1008A0001093550E8E818093560E89818093570E3A
:1008B0008F818093580E8A818093590E888580930A
:1008C0005A0E8B8180935B0E0E9489330C94D80C56
:1008D00080919A0886FD2BC08091220F90E0982F7E
:1008E00088272091230F820F911D90936207809398
:1008F0006107109283080E94663389E08093540E4A
:100900000E94893380919A08806480939A080E949B
:10091000372C60939B0870939C0880939D0890935C
:100920009E0810925C0710925B070C94D80C6091A3
:10093000230F70E0762F66278091240F680F711DBA
:10094000072E000C880B990B0E94D45560931F0E44
:100950007093200E8093210E9093220E2091220FEF
:100960002D3259F4DC01CB01B05880931F0E9093C7
:10097000200EA093210EB093220E6091260F70E0FE
:10098000762F66278091270F680F711D072E000CA8
:10099000880B990B0E94D4556093130E7093140E1C
:1009A0008093150E9093160E2091250F2D3259F439
:1009B000DC01CB01B0588093130E9093140EA093DA
:1009C000150EB093160E6091290F70E0762F6627F2
:1009D00080912A0F680F711D072E000C880B990B50
:1009E0000E94D45560931B0E70931C0E80931D0EB5
:1009F00090931E0E2091280F2D3259F4DC01CB016B
:100A0000B05880931B0E90931C0EA0931D0EB093B4
:100A10001E0E1092200910922109109222091092A4
:100A2000230910921C0910921D0910921E091092A0
:100A30001F092BED3FE049E450E460911B0E7091DB
:100A40001C0E80911D0E90911E0E0E94335620E0C8
:100A500030E044E353E40E94F3576B017C010E94B1
:100A6000F05720E030E040EC50E40E9433569B0108
:100A7000AC0160911F0E7091200E8091210E90911B
:100A8000220E0E944C5760930B0E70930C0E8093B5
:100A90000D0E90930E0EC701B6010E94415920E041
:100AA00030E040EC50E40E9433569B01AC01609171
:100AB000130E7091140E8091150E9091160E0E94D7
:100AC0004C576093070E7093080E8093090E909315
:100AD0000A0E80912C0F80936D0F0E947B3C81E069
:100AE00080936A0865C78BED95E00E94343781E0FA
:100AF0009091220F911101C080E08093200290E03C
:100B00000E94823855C78AEF95E00E94903861E0D4
:100B10008091220F0E949E190E94372C60939B089F
:100B200070939C0880939D0890939E0841C7809184
:100B3000220F8093280990915407981708F438C71A
:100B400010928D0835C780911C02863609F0F1CCD1
:100B50002FC70E94593380919A0811E082958170C5
:100B600081270E9417344091230F50E0542F4427CF
:100B70008091240F480F511D10931B098091220F63
:100B80008D3219F45195419551098091260F90E0CD
:100B9000982F88272091270F820F911D2091250FD4
:100BA0002D3219F4919581959109052E000C660B53
:100BB000770B4093690750936A0760936B077093B4
:100BC0006C07092E000CAA0BBB0B80936507909352
:100BD0006607A0936707B093680782E080939A083E
:100BE00080911A028F7180931A0288E680931C020A
:100BF0000E94372C60939B0870939C0880939D08FB
:100C000090939E080E947B3C809117028E7F809378
:100C1000170286E096E00E94903860916907709113
:100C20006A0780916B0790916C070E94D4552091C0
:100C30001F0E3091200E4091210E5091220E0E94E5
:100C40004C576B017C01609165077091660780913C
:100C50006707909168070E94D4552091130E309138
:100C6000140E4091150E5091160E0E944C574B01D8
:100C70005C01A70196010E94F3570E94C85740905B
:100C80001B0E50901C0E60901D0E70901E0E209139
:100C90001B09222309F444C020E030E044E353E47C
:100CA0000E9433562BED3FE049E450E40E94F35795
:100CB000A30192010E944C570E945B588B0120E0D7
:100CC00030E0A901C701B6010E94CE5587FF07C0D9
:100CD0000C541F4F053B110514F008561140A70195
:100CE0009601C701B6010E9433566B017C01A50134
:100CF0009401C501B4010E9433569B01AC01C701A8
:100D0000B6010E944D570E944B590E945B58011535
:100D1000110509F180919A08846080939A081BC09C
:100D2000A7019601C701B6010E9433566B017C01F1
:100D3000A5019401C501B4010E9433569B01AC0189
:100D4000C701B6010E944D570E944B5990580E940E
:100D50005B5800E010E0161617062CF480919A08F4
:100D60008F7E886006C06115710529F080919A0810
:100D7000886180939A08CB0177FF04C08827992760
:100D8000861B970B03974CF4C80117FF04C08827F4
:100D90009927801B910B089744F070936908609322
:100DA0006808C8010E94FA17C4CB89E680931C0228
:100DB00010929A0885E00E94581EBBCB2091220F0A
:100DC00088EE93E0FC012E9FC0012F9F900D11240F
:100DD0000E94A832EDC582E196E00E949038809191
:100DE000220F80935607E4C5809170088B7F809313
:100DF0007008809170088E7F8093700880917008D1
:100E00008D7F8093700810927A07109279078091F5
:100E10001A028F3F09F49CC080919A08867009F0ED
:100E200097C080918B07811193C010929A0880918E
:100E3000230F90E0982F88272091240F820F911D77
:100E400090937E0880937D082091220F2D3239F4F3
:100E500091958195910990937E0880937D0880916A
:100E60007D0890917E08892B19F084E080939A0880
:100E70008091260F90E0982F88272091270F820FCE
:100E8000911D9093800880937F08009729F0029627
:100E9000059710F465E05DC08FEF809316020E9405
:100EA000372C60939B0870939C0880939D089093C7
:100EB0009E080E94593380911A028F7180931A0202
:100EC00088E680931C0280919A08982F92609093F4
:100ED0009A08909181089D7F909381089091250FA9
:100EE0009D3259F420917F083091800831952195E9
:100EF00031093093800820937F0820917F0830913A
:100F00008008121613061CF48F7E8A6003C0232B00
:100F100019F08A6180939A0880919A08829581706D
:100F200091E089270E94173404CB8091220F8F779C
:100F300090E0982F88272091230F820F911D68E65B
:100F400071E00E94E0598C018091810880FFE2C02D
:100F50006FEF89E690E095C080911A028F3F09F407
:100F600076C080919A08867009F071C080917008EF
:100F70008B7F80937008809170088E7F80937008BB
:100F8000809170088D7F8093700810921A091092DA
:100F9000190910927A07109279072091230F30E0F7
:100FA00030931809209317098091250F8093160913
:100FB0008091270F809315098091290F8F7790E0FA
:100FC000982F882740912A0F840F911D90938008B5
:100FD00080937F081092180210927D07EBE0F9E0F1
:100FE000A1E0B9E0119211921D921D9249E0E53104
:100FF000F407C1F7E1EFF8E0119259E0E130F507AD
:10100000D9F74091220F4D3239F4319521953109AC
:1010100030931809209317092091280F2D3239F4A5
:101020009195819591099093800880937F08F09124
:101030007F08E091800810911709409118098F2FBF
:101040009E2F612F742F0E94E05977FF02C06FEF2F
:1010500016C0212F342F37FF03C031952195310958
:101060004F2F5E2F57FF03C051954195510924170B
:1010700035070CF49A012330310534F465E080E73C
:1010800090E00E946F3D94C480912C0F8F7790E088
:10109000982F882720912D0F820F911D9093F00893
:1010A0008093EF0880912F0F8F7790E0982F8827FB
:1010B0002091300F820F911D90932709809326096C
:1010C0008091320F8093EE080E94372C60939B082A
:1010D00070939C0880939D0890939E08809181084E
:1010E00082608093810880919A08982F92609093F3
:1010F0009A0820917F0830918008121613061CF47C
:101100008F7E8A6004C0232B09F452C48A618093C5
:101110009A084EC4C8010196039708F4BBCE0E94FA
:10112000372C60939B0870939C0880939D08909344
:101130009E088FE680931F022BED3FE049E450E4C8
:1011400060911B0E70911C0E80911D0E90911E0ED1
:101150000E94335620E030E044E353E40E94F3570A
:101160006B017C010E94F05720E030E040EC50E43D
:101170000E9433569B01AC0160911F0E7091200EAE
:101180008091210E9091220E0E944C5760930B0E7D
:1011900070930C0E80930D0E90930E0EC701B60146
:1011A0000E94415920E030E040EC50E40E94335668
:1011B0009B01AC016091130E7091140E8091150E7D
:1011C0009091160E0E944C576093070E7093080E74
:1011D0008093090E90930A0E0E94593380919A08C9
:1011E000FF24F394829581708F250E94173464E662
:1011F00070E080E090E00E94FF2B8091220F87FF3B
:1012000007C01195019511098FEF80937B0702C0EC
:10121000F0927B070E94372C60935C0870935D0806
:1012200080935E0890935F0810937A070093790784
:101230008091810881608093810810925B080E94F0
:10124000372C60939B0870939C0880939D08909323
:101250009E082BED3FE049E450E460911B0E709135
:101260001C0E80911D0E90911E0E0E94335620E0A0
:1012700030E044E353E40E94F3576B017C010E9489
:10128000F05720E030E040EC50E40E9433569B01E0
:10129000AC0160911F0E7091200E8091210E9091F3
:1012A000220E0E944C5760930B0E70930C0E80938D
:1012B0000D0E90930E0EC701B6010E94415920E019
:1012C00030E040EC50E40E9433569B01AC01609149
:1012D000130E7091140E8091150E9091160E0E94AF
:1012E0004C576093070E7093080E8093090E9093ED
:1012F0000A0E0E94593380919A088295817091E07C
:1013000089270E94173464E670E080E090E00E9434
:10131000FF2B4EC30E94372C60939B0870939C0850
:1013200080939D0890939E0883E296E00E949038F7
:1013300080919A08806880939A080E94001B38C3A5
:101340008BE296E00E9490380E94593383E79EE03A
:101350000E94592E8EE59EE00E94592E109271082F
:10136000109272081092730810927408E091460F60
:10137000F0E0CF01880F991FE80FF91FEA58F24FEC
:1013800080818F7B808346D50E9459350E946633C9
:1013900085E08093540E0E94893360E080E30E94D0
:1013A000892AED988AEB99E29093080280930702CC
:1013B00060E083E00E94B82A8FEF80931A021092B7
:1013C0001C0210929A0810928108109276081092CE
:1013D0006E0710928D0810926008109261081092AA
:1013E000620810926308A5C884E396E00E9434372F
:1013F00060E170E08091220F0E949A380E94593378
:101400000E94663387E08093540E0E948933809156
:10141000220F0E94BF1F8DC80E94372C60939B082B
:1014200070939C0880939D0890939E088FE396E0AC
:101430000E9490380E94593380919A088295817059
:1014400091E089270E9417341092E9081092EA0867
:101450001092EB081092EC081092E5081092E60842
:101460001092E7081092E80861E080E30E94892A60
:1014700043E050E067E473E181E00E948D2C20E0BE
:1014800030E040E060E070E080E00E949534409100
:1014900033025091340260E083E79EE00E9404230F
:1014A00060912D0270912E0280E090E00E94D25552
:1014B0002091210230912202409123025091240276
:1014C0000E9433560E946058AB0161E08EE59EE0B9
:1014D0000E94042360EA7FE080E090E00E94FF2BFE
:1014E0008EE59EE00E94592E83E79EE00E94592ED1
:1014F00091D468EC70E080E090E00E94FF2B0E94A5
:1015000000340E94593560E080E30E94892AED98FA
:101510008AEB99E2909308028093070260E083E0EF
:101520000E94B82A4091A50B5091A60B6091A70B81
:101530007091A80B66277727809183079091840785
:10154000A0918507B0918607480F591F6A1F7B1F1E
:1015500040938307509384076093850770938607B1
:101560008090A90B9090AA0BA090AB0BB090AC0B05
:10157000AA24BB2480917F0790918007A0918107C6
:10158000B0918207880E991EAA1EBB1E80927F070B
:1015900090928007A0928107B0928207A091990B48
:1015A000B0919A0B2091910B3091920BC0909B0BB4
:1015B000D0909C0B8091930B9091940BF901EA0FC2
:1015C000FB1FF695E7952A1B3B0B3695279536951D
:1015D00027954090A50B5090A60B6090A70B70909C
:1015E000A80B82014090A90B5090AA0B6090AB0B06
:1015F0007090AC0B7201DF01A21BB30BB0932802F9
:10160000A09327022E0F3F1F30932602209325021E
:101610009C012C0D3D1DF901F695E7958C199D094E
:1016200096958795969587959F01281B390B309342
:101630002C0220932B028E0F9F1F90932A028093DF
:101640002902CB01BA01681979098A099B090E940C
:101650005B380415150509F470C089E496E00E9412
:1016600034378091830790918407A0918507B091CA
:10167000860740917F0750918007609181077091A4
:101680008207841B950BA60BB70B181619061A06B2
:101690001B06ECF440165106D0F482E596E00E9459
:1016A00090382DEC3CEC4CEC5DE3609121027091A4
:1016B000220280912302909124020E944D57609350
:1016C000210270932202809323029093240280913E
:1016D0007F0790918007A0918107B0918207409188
:1016E0008307509184076091850770918607841B5A
:1016F000950BA60BB70B181619061A061B06ECF469
:101700000E151F05D0F486E596E00E9490382DEC6A
:101710003CEC4CEC5DE360912102709122028091DF
:101720002302909124020E944C57609321027093EF
:10173000220280932302909324028FEB8093900ED9
:1017400081E78093910E87E08093920E809125022D
:10175000909126029093930E8093940E1092950E82
:1017600080912702909128029093960E8093970E75
:101770001092980E8091290290912A029093990ECE
:1017800080939A0E10929B0E80912B0290912C02C6
:1017900090939C0E80939D0E10929E0E809133022A
:1017A0009091340290939F0E8093A00E1092A10E00
:1017B00080912D0290912E029093A20E8093A30E01
:1017C0001092A40E20E030E048EC52E46091210237
:1017D0007091220280912302909124020E9433563C
:1017E0006B017C0120E030E040E85BE30E9433566F
:1017F0000E9460586093A50EC701B6010E94605810
:101800006093A60E86E18093AF0ED2C00E94372C63
:1018100060939B0870939C0880939D0890939E080A
:101820008AE596E00E94903810921A028FEF0E948B
:10183000BF1F0E9459330C9499020E94372C609369
:101840009B0870939C0880939D0890939E088091BC
:10185000220F0E94B53384E696E00E9434376AE096
:1018600070E08091220FA2C087E08093160280E78B
:1018700096E092C082E080931502109282088FE772
:1018800096E08AC00E947E3A83E996E085C08FEB9D
:101890008093900E87E78093910EE0900F09F0906F
:1018A00010090091050910910609B8016E0D7F1D00
:1018B00080910B0990910C09681B790B80910109AB
:1018C00090910209681B790B7695679580E090E00E
:1018D0000E94D2550E9421590E9460587093920E26
:1018E0006093930E1092940E60910709709108090D
:1018F0008091110990911209680F791F6E197F0963
:10190000601B710B7695679580E090E00E94D25540
:101910000E9421590E9460587093950E6093960E14
:101920001092970E8091ED088093980E1092990E68
:1019300080911A0980939A0E8091190980939B0EC9
:101940008BE08093AF0E83EA96E026C08FEB809306
:10195000900E88E78093910EE4E9FEE080E090E04D
:10196000BC016F50774F9F0122503109DB014C9130
:10197000D9014C932F5F3F4FDB0111964C91D90158
:101980004C931082029633968031910549F789E194
:101990008093AF0E8FEB96E00E94903809C086EDE1
:1019A00096E00E94343760E170E0812F0E949A38FF
:1019B00028960FB6F894DEBF0FBECDBFDF91CF9152
:1019C0001F910F91FF90EF90DF90CF90BF90AF905D
:1019D0009F908F907F906F905F904F9008952F927F
:1019E0003F924F925F926F927F928F929F92AF92AF
:1019F000BF92CF92DF92EF92FF920F931F93CF93FC
:101A0000DF93EA014801590117010E94D25520E0F5
:101A100030E040E051E40E94335620E238ED4FE9D7
:101A200051E40E94F3572B013C01C501B4010E940F
:101A3000D25520E030E040E051E40E9433562AE2E3
:101A40003AE541EA51E40E94F3574B015C01C301BE
:101A5000B2010E9421590E945B586B01770FEE087A
:101A6000FF08C701B6010E94D2559B01AC01C3011A
:101A7000B2010E944C5720E030E040E05FE30E945A
:101A8000165918162CF48FEFC81AD80AE80AF80A63
:101A9000C0927009D0927109E0927209F0927309B4
:101AA000C501B4010E9421590E945B586B01770F58
:101AB000EE08FF08C701B6010E94D2559B01AC0198
:101AC000C501B4010E944C5720E030E040E05FE3E4
:101AD0000E94165918162CF48FEFC81AD80AE80A73
:101AE000F80AC0926C09D0926D09E0926E09F092EA
:101AF0006F09D0936B09C0936A09B101330C880B4D
:101B0000990B0E94D45520912102309122024091DC
:101B10002302509124020E9433560E9460586B01A8
:101B20007C01709369096093680940917009509134
:101B30007109609172097091730945315105610510
:101B4000710588F080916C0990916D09A0916E09E2
:101B5000B0916F0985319105A105B10520F0209163
:101B600018022F3059F180902F0290903002A090EF
:101B70003102B0903202BE0180E090E00E94D25566
:101B8000A50194010E9433560E94605870936B091E
:101B900060936A09B60180E090E00E94D255A501E9
:101BA00094010E9433560E946058709369096093B3
:101BB000680910927B0810927C081CC021E02093D9
:101BC0007B0820937C084C505109610971094093AE
:101BD00070095093710960937209709373090C979F
:101BE000A109B10980936C0990936D09A0936E09C6
:101BF000B0936F09DF91CF911F910F91FF90EF90FC
:101C0000DF90CF90BF90AF909F908F907F906F901C
:101C10005F904F903F902F9008958F929F92AF9238
:101C2000BF92CF92DF92EF92FF920E94003461E068
:101C300080E30E94892A64E670E080E090E00E94E0
:101C4000FF2B109278091092790910927A0910925C
:101C50007B091092740910927509109276091092FE
:101C6000770910926B0A10926C0A10926D0A10920A
:101C70006E0A1092670A1092680A1092690A10920E
:101C80006A0AC0907009D0907109E0907209F090D2
:101C90007309D0928409C092830980906C09909056
:101CA0006D09A0906E09B0906F09909282098092A0
:101CB0008109C114D104E104F10409F44EC0811476
:101CC0009104A104B10409F448C0809175088360AF
:101CD00080937508109270081092E9081092EA0833
:101CE0001092EB081092EC081092E5081092E608AA
:101CF0001092E7081092E80810927E0760E083E0F7
:101D00000E94892A43E050E067E473E181E00E9489
:101D10008D2C940141E0B60181E00E949534409100
:101D2000680950916909609104028EE59EE00E9465
:101D3000042340916A0950916B096091780783E709
:101D40009EE00E9404230E94372C609371087093D8
:101D500072088093730890937408FF90EF90DF905F
:101D6000CF90BF90AF909F908F900895CF93DF93C7
:101D70006CEE7BE045E75FE02CE03CE0C4EFDBE0AD
:101D8000A9E8BFE080E090E0FB011192BF01FA01F9
:101D90001192119211921192AF01F90111929F01CA
:101DA00019921D92FC01E051F44F1082FC01EE0FDC
:101DB000FF1FEE0FFF1FE850F44F108211821282B6
:101DC0001382019684309105F9F61092850F1092D6
:101DD000860F1092870F1092880F10928D0F10921D
:101DE000610F0E944F34EC988AEB99E290930602BF
:101DF0008093050210927F0910927E0910927D094E
:101E000010927C09809118028F7780931802DF91DD
:101E1000CF91089580912002882389F00E944F3449
:101E2000EC988AEB99E29093060280930502109257
:101E30007F0910927E0910927D0910927C09089505
:101E4000CF92DF92EF92FF92BC01990F880B990B12
:101E50000E94D4552BED3FE049E450E40E943356F4
:101E600020E030E044E353E40E94F3576B017C012F
:101E70000E94F05720E030E040EC50E40E943356DE
:101E80009B01AC0160910B0E70910C0E80910D0EB8
:101E900090910E0E0E944D5760931F0E7093200E6E
:101EA0008093210E9093220EC701B6010E944159E2
:101EB00020E030E040EC50E40E9433569B01AC013E
:101EC0006091070E7091080E8091090E90910A0E94
:101ED0000E944D576093130E7093140E8093150E4D
:101EE0009093160EFF90EF90DF90CF9008954F9251
:101EF0005F926F927F928F929F92AF92BF92CF929A
:101F0000DF92EF92FF920F931F93CF93DF93CDB7A2
:101F1000DEB764970FB6F894DEBF0FBECDBF182FA3
:101F20008091A50B9091A60BA091A70BB091A80B47
:101F300089879A87AB87BC878091A90B9091AA0B60
:101F4000A091AB0BB091AC0B8D879E87AF87B88B00
:101F5000A985BA85BD0180E090E00E94D2556B0151
:101F60007C016091E9087091EA088091EB089091FA
:101F7000EC080E94D2559B01AC01C701B6010E943A
:101F80004C572BED3FE049E450E40E9433562FE1DB
:101F900035E84BEC50E40E94335620E030E040E05E
:101FA0005EE30E94335669837A838B839C83ED853D
:101FB000FE85BF0180E090E00E94D2556B017C015C
:101FC0006091E5087091E6088091E7089091E80833
:101FD0000E94D2559B01AC01C701B6010E944C572B
:101FE0002BED3FE049E450E40E94335624EA30E709
:101FF0004DEC50E40E94335620E030E040E05EE3D8
:102000000E9433566B017C0180911B0E90911C0E37
:10201000A0911D0EB0911E0E898B9A8BAB8BBC8B41
:102020000091760803FF3CC180917807882349F02E
:1020300089819A81AB81BC81B05889839A83AB83B3
:10204000BC8380910402811104C0F7FAF094F7F880
:10205000F09420E030E0A90169817A818B819C8134
:102060000E94CE55882309F41BC120E030E0A9016D
:10207000C701B6010E94CE55882309F411C12BED8A
:102080003FE049E450E469897A898B899C890E9400
:10209000335620E030E044E353E40E94F3574B0111
:1020A0005C0189859A85AB85BC85AA27BB2780936F
:1020B000E9089093EA08A093EB08B093EC088D85AB
:1020C0009E85AF85B889AA27BB278093E5089093A2
:1020D000E608A093E708B093E80829813A814B818C
:1020E0005C81C701B6010E944C572B013C0120E0E6
:1020F00030E0A9010E94CE55882309F493C020E066
:1021000030E04CEA52E4C301B2010E94F3570E944E
:10211000B1576D837E838F8398870E9441592B012D
:102120003C019B01AC010E944D579B01AC01C701D2
:10213000B6010E94F35720E030E048EA51E40E94E3
:102140004C579B01AC010E944D57A30192010E9484
:1021500033562B013C012D813E814F815885C501AD
:10216000B4010E944D574B015C010E94F0579B0146
:10217000AC01C301B2010E9433569B01AC016091D6
:1021800020097091210980912209909123090E94D0
:102190004D576093200970932109809322099093F1
:1021A0002309C501B4010E9441599B01AC01C3013F
:1021B000B2010E9433569B01AC0160911C097091E1
:1021C0001D0980911E0990911F090E944D5760932F
:1021D0001C0970931D0980931E0990931F092D817E
:1021E0003E814F815885CA01B9010E944D5720E0B8
:1021F00030E044E353E40E9433562BED3FE049E4E2
:1022000050E40E94F35729893A894B895C890E94DE
:102210004D5760931B0E70931C0E80931D0E909370
:102220001E0E3EC0C501B4010E94F0579B01AC01D7
:1022300069817A818B819C810E9433569B01AC011C
:1022400060912009709121098091220990912309C0
:102250000E944D57609320097093210980932209B1
:1022600090932309C501B4010E9441599B01AC011F
:10227000C701B6010E9433569B01AC0160911C0955
:1022800070911D0980911E0990911F090E944D5760
:1022900060931C0970931D0980931E0990931F0978
:1022A000113009F09FC080911F028F3609F4D0C011
:1022B00029813A814B815C81C701B6010E944D574B
:1022C00020E030E044E353E40E94335627EA36E14D
:1022D00047E053E40E94F35705FF905820911B0EEE
:1022E00030911C0E40911D0E50911E0E0E944D57B4
:1022F0000E945B58CB0168E671E00E94E059BC0186
:10230000990F880B990B0E94D45560931B0E709304
:102310001C0E80931D0E90931E0E2BED3FE049E4A2
:1023200050E40E94335620E030E044E353E40E943E
:10233000F3576B017C010E94F05720E030E040EC45
:1023400050E40E9433569B01AC016091170E7091CE
:10235000180E8091190E90911A0E0E944D5760939D
:102360001F0E7093200E8093210E9093220EC701B2
:10237000B6010E94415920E030E040EC50E40E9458
:1023800033569B01AC0160910F0E7091100E80913D
:10239000110E9091120E0E944D576093130E709380
:1023A000140E8093150E9093160E8D859E85AF8525
:1023B000B889AA27BB278093670A9093680AA093DD
:1023C000690AB0936A0A89859A85AB85BC85AA2774
:1023D000BB2780936B0A90936C0AA0936D0AB0930D
:1023E0006E0A36C01F3FA1F52091200930912109C6
:1023F000409122095091230960911F0E7091200E87
:102400008091210E9091220E0E944D5760931F0ED5
:102410007093200E8093210E9093220E20911C0920
:1024200030911D0940911E0950911F096091130EB2
:102430007091140E8091150E9091160E0E944D57BA
:102440006093130E7093140E8093150E9093160ED6
:1024500064960FB6F894DEBF0FBECDBFDF91CF916B
:102460001F910F91FF90EF90DF90CF90BF90AF90B2
:102470009F908F907F906F905F904F9008958530E0
:1024800009F4F4C0811134C080917B08882309F4D9
:1024900070C060E083E00E94892A43E050E067E476
:1024A00073E181E00E948D2C10927B0860913302D1
:1024B0007091340280E090E00E94D25520912F026A
:1024C0003091300240913102509132020E943356D5
:1024D0000E94605883E79EE00E946D2E8091D50B8C
:1024E0009091D60B0C969093D60B8093D50B36C05B
:1024F000813009F045C080917C08882309F440C0F0
:1025000060E083E00E94892A43E050E067E473E1E1
:1025100081E00E948D2C10927C0860912D027091B8
:102520002E0280E090E00E94D25520912F0230913F
:10253000300240913102509132020E9433560E9483
:1025400060588EE59EE00E946D2E8091D70B909191
:10255000D80B0C969093D80B8093D70B0E94372CF6
:1025600060937708709378088093790890937A083D
:10257000089583E79EE00E94592E8EE59EE006C0F6
:102580008EE59EE00E94592E83E79EE00E94592E20
:1025900010927108109272081092730810927408C9
:1025A000809118028F3021F082E08093800901C071
:1025B00031DC0E94372C60938707709388078093E3
:1025C000890790938A07809175088C7F809375089E
:1025D0008091760883FF03C091E090938B0782FF80
:1025E00055C064EF71E080E090E00E94FF2B0E94F4
:1025F0005935ED988AEB99E290930802809307028F
:1026000060E083E00E94B82A60E080E30E94892AAB
:1026100010925A080E9400340E94372C609387075A
:10262000709388078093890790938A0781E05FDC25
:10263000809176088B7F8093760864E670E080E076
:1026400090E00E94FF2B80919A0883FD1FC080912B
:10265000810880FD1BC080917E07882311F060E116
:1026600001C060E089E690E00C946F3D83E79EE056
:102670000E94592E8EE59EE00E94592E10927108FC
:102680001092720810927308109274080895809145
:10269000AA09853099F0282F30E0F901E558F74F65
:1026A000908191110BC0F901E352F44F1082220F77
:1026B000331FF901EB52F44F11821082E0CE2F92BA
:1026C0003F924F925F926F927F928F929F92AF92C2
:1026D000BF92CF92DF92EF92FF920F931F93CF930F
:1026E000DF93CDB7DEB728970FB6F894DEBF0FBEE5
:1026F000CDBFC090A50BD090A60BE090A70BF0909B
:10270000A80B16012091A90B3091AA0B4091AB0B9D
:102710005091AC0B8901B601621B730B77FF03C0AC
:10272000719561957109072E000C880B990B2D830B
:102730003E834F8358870E94D4554B015C018091A2
:1027400070088B7F80937008809170088E7F8093D3
:102750007008809170088D7F809370082601370182
:10276000662477242D813E814F815885232869F086
:102770008091780990917909A0917A09B0917B09AB
:10278000481659066A067B0641F4809170088160FC
:10279000809370083324339401C0312CDA01C901CD
:1027A000AA27BB2789839A83AB83BC83012B89F03B
:1027B0008091740990917509A0917609B09177097B
:1027C00029813A814B815C81281739074A075B07C9
:1027D00059F58091700882608093700820E030E0A5
:1027E00040E450E4C501B4010E94165918163CF1AA
:1027F00083E79EE00E94592E8EE59EE00E94592EAE
:102800001092710810927208109273081092740856
:1028100064E670E080E090E00E94FF2B80917608F3
:1028200082FF28C081E027C020E030E040E450E48F
:10283000C501B4010E94165918161CF018C03324A3
:102840003394B60180E090E00E94D2559B01AC0128
:10285000C501B4010E94F3572AE939E949E15EE371
:102860000E94165918161CF481E080937E073320CD
:1028700051F0BECF8FEF3BDB8AE00E94581E8EEEF8
:1028800092E00E94A83240927809509279096092B1
:102890007A0970927B0989819A81AB81BC8180938E
:1028A000740990937509A0937609B09377092896D7
:1028B0000FB6F894DEBF0FBECDBFDF91CF911F9151
:1028C0000F91FF90EF90DF90CF90BF90AF909F90CF
:1028D0008F907F906F905F904F903F902F900895D2
:1028E000CF93DF93EC010E9400341092700843E014
:1028F00050E067E473E181E00E948D2C81E08093D9
:10290000E50B1092E60B8091590D882341F061E0B0
:102910000E94B82A60E08091590D0E94892AD093C4
:10292000D60BC093D50B1092A9091092A80910924A
:10293000A10B8FEF93E090939A0B8093990B1092D9
:10294000920B1092910B80916A0D0E94BB2B2091EB
:10295000620D3091630D2817390724F481E08093CC
:102960008D0B02C010928D0BF894109220011092E2
:1029700021018CE49EEF90932501809324018091A6
:102980002101846080932101809173008160809394
:10299000730078944091330250913402609178072B
:1029A00083E79EE00E94042340912D0250912E0265
:1029B000609104028EE59EE00E9404230E94372C61
:1029C00060937108709372088093730890937408F1
:1029D000DF91CF910895CF92DF92EF92FF920F9304
:1029E0001F93CF93DF936C016AE070E080E090E08A
:1029F0000E94FF2B80919A08877F80939A0880918C
:102A0000760888608093760880916E07886080934E
:102A10006E0710922009109221091092220910923B
:102A2000230910921C0910921D0910921E09109280
:102A30001F09109267090E947B3CC114D10409F45C
:102A4000ECC087EE96E00E943437C6010E948238BF
:102A5000E601D7FE04C0CC27DD27CC19DD09E090C4
:102A60002D02F0902E024091330250913402BE01AB
:102A70000D2E000C880B990B8B019C010E94EF0C12
:102A8000D7FE06C081E0809378071092040205C04B
:102A90001092780781E080930402809120028823BD
:102AA00009F4B2C064E070E088E590E00E94A21EE4
:102AB000FC012081318182819381D7FE12C0109266
:102AC0001B099195819591099093660980936509F9
:102AD00082E180937F0986E180937E0911E000E026
:102AE0000FC081E080931B0930936609209365092C
:102AF00083E180937F0987E180937E0910E001E004
:102B00001092630F1092620F20916509309166094F
:102B10002115310509F440C037FF03C031952195D7
:102B20003109FBE11F9FC00111244CE3049F800D7C
:102B3000911D1124A9014C1B5D0B4817590764F521
:102B400097FF03C0919581959109281B390B30930C
:102B5000630F2093620F809118028F3041F082E062
:102B6000809380098BE080937D0766D505C06BE07C
:102B700089E690E00E946F3D809175088C7F80937C
:102B8000750880917608877F8093760880916E071C
:102B9000877F80936E0741C060E08AE5CFD31092B3
:102BA00086091092850943E050E06EE378E180E009
:102BB0000E948D2C20E030E040E85EE3612F802F02
:102BC0000E943537002379F081E08093EC0B8CE391
:102BD00090E0A0E0B0E08093750F9093760FA09303
:102BE000770FB093780F112379F081E08093ED0B8C
:102BF0008BE190E0A0E0B0E08093790F90937A0FA2
:102C0000A0937B0FB0937C0FDF91CF911F910F9119
:102C1000FF90EF90DF90CF9000C8DF91CF911F9190
:102C20000F91FF90EF90DF90CF9008958F929F9239
:102C3000AF92BF92CF92DF92EF92FF920F931F93CA
:102C4000CF93DF93EC0197FF03C02FEF3FEF02C05C
:102C500021E030E0CE01865A9F4F853B9105D0F5AB
:102C6000CE01D7FF04C0882799278C1B9D0B843188
:102C7000910514F484E190E0289FB001299F700D24
:102C8000389F700D11248AE590E00E94A21EFC017D
:102C90000281138160817181615F7F4F072E000C7B
:102CA000880B990B0E94D45525E435E548E552E49C
:102CB0000E94CE5587FD91C1B801615F7F4F072EFD
:102CC000000C880B990B0E94D45526E732E942E3A9
:102CD00052E48DC0CB35D105ACF16AE570E08AE5F0
:102CE00090E00E94A21EFC0102811381608171812B
:102CF000615F7F4F072E000C880B990B0E94D45503
:102D000025E435E548E552E40E94CE5587FD65C1CE
:102D1000B801615F7F4F072E000C880B990B0E9452
:102D2000D45526E732E942E352E40E94CE5587FDAE
:102D300054C16AE570E06C1B7D0B84EB90E08C1B4A
:102D40009D0B32C066EA7FEF8AE590E0FBD7FC017D
:102D50000281138160817181615F7F4F072E000CBA
:102D6000880B990B0E94D45525E435E548E552E4DB
:102D70000E94CE5587FD31C1B801615F7F4F072E9C
:102D8000000C880B990B0E94D45526E732E942E3E8
:102D900052E40E94CE5587FD20C16AE570E06C1BAD
:102DA0007D0BCE018C549F4FCDD7FC010281138146
:102DB00060817181615F7F4F072E000C880B990B3A
:102DC0000E94D45526E732E942E352E40E94CE55F0
:102DD00087FD03C1B801615F7F4F072E000C880B90
:102DE000990B0E94D45525E435E548E552E40E944C
:102DF000CE5587FDF2C02BED3FE049E450E46091F1
:102E00001B0E70911C0E80911D0E90911E0E0E9443
:102E1000335620E030E044E353E40E94F3576B0163
:102E20007C010E94F05720E030E040EC50E40E942A
:102E300033569B01AC0160911F0E7091200E809162
:102E4000210E9091220E0E944C576093170E7093A2
:102E5000180E8093190E90931A0EC701B6010E94A6
:102E6000415920E030E040EC50E40E9433569B0191
:102E7000AC016091130E7091140E8091150E90911B
:102E8000160E0E944D5760930F0E7093100E809394
:102E9000110E9093120E84E08093760880936E0753
:102EA00080919A088B7F80939A0810922009109243
:102EB0002109109222091092230910921C091092E4
:102EC0001D0910921E0910921F09209709F475C060
:102ED00081EF96E00E943437CE010E948238BE0115
:102EE000D7FF04C0662777276C1B7D0B072E000CCD
:102EF000880B990B0E94D45527E330E240EC5EE347
:102F00000E9433560E9421596B017C018FEF96E09D
:102F10000E943437C701B6010E94DD36C701B601F1
:102F20000E9460584B01A12CB12C60912D02709130
:102F30002E0280E090E00E94D2552DEC3CEC4CE457
:102F40005FE30E9433560E945B586B017C018091C5
:102F5000330290913402BC0180E090E00E94D2558F
:102F60002DEC3CEC4CE45FE30E9433560E94605829
:102F7000760195018401AB01C501B4010E94EF0CFB
:102F80009091760880916E071C161D0644F421E08E
:102F900020937807906290937608806206C0109222
:102FA00078079F7D909376088F7D80936E07809140
:102FB0007807809304020E940D0E89E097E0DF916C
:102FC000CF911F910F91FF90EF90DF90CF90BF9026
:102FD000AF909F908F900C949038DF91CF911F917C
:102FE0000F91FF90EF90DF90CF90BF90AF909F90A8
:102FF0008F900895CF93DF939C01EB0110926B0F9C
:1030000010926A0F1092690F1092680F1092670F5A
:103010001092660F1092650F1092640F90919A08AB
:103020009D7F90939A082115310511F0C901FEDDAD
:10303000209721F0D0936908C0936808DF91CF9161
:103040000895CF93DF9300D0CDB7DEB780916D07A1
:103050008B838B810E9428349A8389838091180204
:10306000806880931802809118028F7B80931802E9
:103070000F900F900F90DF91CF910895EF92FF92F4
:103080000F931F93CF93DF9300D0CDB7DEB700919E
:103090008509109186090F5F1F4F109386090093D1
:1030A000850980916D078B838B810E9428349A83D8
:1030B000898389819A81892B09F4C5C00230110561
:1030C00008F4C1C08091190282FD14C00E94372CFF
:1030D00060936B0870936C0880936D0890936E08F2
:1030E0008091190284608093190280911702826096
:1030F0008093170283E79EE00E94592E8EE59EE0A2
:103100000E94592E10927108109272081092730842
:103110001092740880919A088295817080936F074D
:1031200064E670E080E090E00E94FF2B0E94003493
:103130004091A50B5091A60B6091A70B7091A80B25
:1031400080918309909184097C01E41AF50A4091E9
:10315000A90B5091AA0B6091AB0B7091AC0B8091B5
:103160008109909182098C01041B150B80EE92E07D
:103170000E943437B7010F2C000C880B990B0E946A
:103180005B3888EE92E00E943437C8010E94823892
:10319000C701F7FE02C080E090E0092E000CAA0BE8
:1031A000BB0B8093740790937507A0937607B09339
:1031B0007707C80117FF02C080E090E0092E000CDD
:1031C000AA0BBB0B8093700790937107A0937207B3
:1031D000B09373070E945935ED988AEB99E290936A
:1031E00008028093070260E080E30E94892A60E081
:1031F00083E00E94B82A80917508837021F084EFE3
:1032000091E00E94A832809175088C7F80937508A8
:103210008091760882FF02C081E001C08FEF0E949A
:10322000770F109220091092210910922209109212
:10323000230910921C0910921D0910921E09109268
:103240001F090E947B3C0F900F900F90DF91CF9150
:103250001F910F91FF90EF9008955F926F927F9270
:103260008F929F92AF92BF92CF92DF92EF92FF9296
:103270000F931F93CF93DF93F82EC62F3A01D22ED0
:10328000D02F61E082E00E94892A43E050E061E2B1
:1032900078E180E00E948D2C809118028F778093D6
:1032A0001802809118028064809318020E94372CC3
:1032B00060935D0770935E0780935F07909360074C
:1032C000C1FB552450F8C1702DEC3CEC4CEC5DE397
:1032D000652D8C2F0E94353781E0F8120DC0802EAD
:1032E000912CA12CB12CC12CED2C8301252D4D2D21
:1032F000B3018C2F0E94C63E8EEF8F0D833070F489
:103300008D2E912C5301CD2CE12C00E010E0252DC9
:1033100040E060E070E08C2F0E94C63EDF91CF91CC
:103320001F910F91FF90EF90DF90CF90BF90AF90E3
:103330009F908F907F906F905F900895CF93C62F4E
:10334000843B48F4682F70E080E090E00E94D45500
:103350009B01AC0104C020E030E044E353E460E0B2
:1033600070E084E393E40E944C576093500770939D
:10337000510780935207909353070E943B3965E0B1
:1033800070E080E090E00E94FF2B6091560770E0B3
:1033900080E090E00E94D455209150073091510771
:1033A00040915207509153070E944D570E945B581D
:1033B000CB010E94B7386EEE72E080E090E00E9490
:1033C000FF2BE091460FF0E0CF01880F991FE80F27
:1033D000F91FEA58F24F80818F7B80836AE070E0AA
:1033E00080E090E00E94FF2BCC2331F060E08CE67F
:1033F00090E0CF910C946F3DCF910895CF92DF92E2
:10340000EF92FF9283E29EE00E94C039009751F450
:1034100066E470E080E090E00E94FF2B85E39EE090
:103420000E94C03969E370E00E94CC5980E090E0CE
:103430000E94D2556B017C0120E030E0A9010E947E
:10344000CE55882351F020E030E040E050E4C70141
:10345000B6010E944D576B017C01C701B6010E9465
:103460005B58CB01FF90EF90DF90CF9008956F9263
:103470007F928F929F92AF92BF92CF92DF92EF9204
:10348000FF920F931F93CF93DF9300D000D0CDB75F
:10349000DEB71A82198213E000E0E8EE8E2EE3E038
:1034A0009E2EA12CB12C0E94DA2B6B017C0185E3AE
:1034B0009EE00E94C039009769F1011102C060E0EE
:1034C0001FC0602F462F50E0FA013197EE0FFF1F0B
:1034D00021E030E02C0F3D1FE20FF31F20813181EE
:1034E0002817390768F4440F551FE1E0F0E0EC0FAE
:1034F000FD1FE40FF51F31832083615019F7DFCFE3
:10350000FE013196E60FF11DE60FF11D91838083D8
:103510000F5F01C01150011738F50E94DA2BDC0152
:10352000CB018C199D09AE09BF0988349147A105CB
:10353000B10508F0B8CF0E94DA2B48E4C40E41E789
:10354000D41EE11CF11CA7019601261B370B480B6A
:10355000590BCA01B901A50194010E941B57CA0168
:10356000B9010E94FF2B9FCF1E7FFE01E10FF11DCD
:10357000818192810FB6F894DEBF0FBECDBF009758
:1035800051F466E470E080E090E00E94FF2B85E358
:103590009EE00E94C03969E370E00E94CC5980E04F
:1035A00090E00E94D2556B017C0120E030E0A9013F
:1035B0000E94CE55882351F020E030E040E050E4F6
:1035C000C701B6010E944D576B017C01C701B601CE
:1035D0000E945B58CB0126960FB6F894DEBF0FBE53
:1035E000CDBFDF91CF911F910F91FF90EF90DF90B2
:1035F000CF90BF90AF909F908F907F906F900895E5
:10360000CF93DF9334DFEC0164E670E080E090E07C
:103610000E94FF2BF3DEBC01CE010E94BE3B0E9444
:10362000372C6093640870936508809366089093C4
:103630006708DF91CF9108950F931F93CF93DF9386
:10364000809118028F30F9F0809118028093ED0874
:103650008091180283FD17C08091180284FD13C069
:1036600020911802277081E090E0A0E0B0E004C053
:10367000880F991FAA1FBB1F2A95D2F720911A09FC
:10368000822B80931A098091180281110CC00E942C
:10369000372C60935D0770935E0780935F0790936C
:1036A000600781E037C00E94372C00915D071091C0
:1036B0005E0720915F0730916007085310452F4F38
:1036C0003F4F601771078207930738F58091180202
:1036D000813021F480919A0886FDE5C21092200283
:1036E000309180093230D1F1809118028E3209F088
:1036F000E9C080917D07811136C080911802843421
:10370000B9F50E94B60E80918B078111CCC2109240
:10371000800985E080931802C6C28FE0809318026A
:1037200010929A08109281080E94B60E10927B089F
:1037300010927C0880E00E943F1281E00E943F12BC
:103740001092800989E680931C026AE980E790E084
:103750000E946F3D81E080932002A5C280911802F3
:1037600083FF8DC2C6CF323041F60E94B60E9AC09A
:10377000853410F5863009F475C070F4833009F48F
:1037800046C018F48230C1F19DC0843009F4B9CF2D
:10379000853009F45CC096C08E3209F46DC038F4EF
:1037A000873009F482C08F3009F47DC28BC0823427
:1037B00019F1833461F186C0833849F160F48634AD
:1037C00009F450C008F443C0873409F46EC08E3643
:1037D00009F452C077C0863809F444C030F4843804
:1037E00009F48FCF853899F16DC0873809F45DC031
:1037F0008E3A09F441C066C00E94B60E89E68093F5
:103800001C0210929A081092800980E70AC00E9458
:10381000B60E89E680931C0210929A0810928009D5
:1038200081E780937D0781E0809320028EE2809380
:1038300018020E94372C60935D0770935E07809397
:103840005F079093600787E0809316022CC20E9466
:10385000B60E89E680931C0210929A081092800995
:1038600082E7DFCF89E680931C0210929A081092BB
:10387000800910927D07DACF0E94372C00915D07F6
:1038800010915E0720915F0730916007DC01CB014A
:10389000801B910BA20BB30B893E9340A105B10590
:1038A00008F401C260917D0701C060E080E790E00C
:1038B0000E946F3D8FE08093180210928009109251
:1038C0009A08F1C18091180286FDEDC1809118021D
:1038D000863409F4A9C188F4853009F479C130F43B
:1038E0008130E9F0833009F4AFC0DDC1863009F4DE
:1038F0009BC1823109F455C0D6C1833809F4DDC0BB
:1039000038F4843609F437C1823809F44AC0CBC18F
:10391000843809F444C1863809F486C1C4C1809151
:1039200018028F5F809318020E94372C60935D0706
:1039300070935E0780935F079093600760E08AE56D
:10394000FDDC80919A0884FF02C058DD01C08FDD44
:103950002091EF083091F0088217930720F08091B2
:1039600018028061D7CE80918B0781119CC1809114
:103970001709909118092FD880919A0884FF02C0E6
:1039800062E001C061E0809118028F3009F48BC1C0
:10399000809118024091EF085091F00800E021E476
:1039A0008AC08091180284FD0FC00E94B60E10924A
:1039B0007B0810927C0880E00E943F1281E00E9408
:1039C0003F121092800922C020911802277081E0D6
:1039D00090E0A0E0B0E004C0880F991FAA1FBB1FB1
:1039E0002A95D2F780959095A095B09540911A09A7
:1039F00050E060E070E084239523A623B7238093F2
:103A00001A09809118028F7E809318028091180203
:103A1000823109F4FBC08091A50B9091A60BA09177
:103A2000A70BB091A80B90930E0980930D0980917C
:103A3000A90B9091AA0BA091AB0BB091AC0B9093FA
:103A4000040980930309E2C080918B0781112BC187
:103A50000E94372C60935D0770935E0780935F0729
:103A60009093600760E080E069DC8091EE0890E070
:103A70000E94EB1410928709C09116091091180248
:103A8000D0E0BE010D2E000C880B990B0E94D4557E
:103A90002DEC3CEC4CEC5DE30E94335620E030E032
:103AA00040EA50E40E944D570E946058062F23E2DE
:103AB000AE0163E0812FD1DBF6C0109280090E9435
:103AC000B60EC091160910911802D0E0BE010D2E5D
:103AD000000C880B990B0E94D4552DEC3CEC4CEC5F
:103AE0005DE30E94335620E030E040EA50E40E945B
:103AF0004D570E946058062F23E1AE0163E0812FED
:103B0000ACDB68E572E080E090E00E94FF2B80E093
:103B10000E942834C82F81E00E942834C093F10805
:103B20008093F20882E080938709809118028F5F6A
:103B3000809318028091A50B9091A60BA091A70BE2
:103B4000B091A80B9093100980930F098091A90B55
:103B50009091AA0BA091AB0BB091AC0B909306097E
:103B600080930509809118028064809318028091E7
:103B7000150990E07EC0C0918709C03180F480E0D3
:103B80000E942834D82F81E00E942834EC2FF0E0E6
:103B9000EF50F74FD0838183CE5FC0938709809128
:103BA00018028F7780931802809118028F7B809380
:103BB0001802809118028F5F8093180268EE73E0FC
:103BC00080E090E0DF91CF911F910F910C94FF2B3B
:103BD0008091A50B9091A60BA091A70BB091A80B7B
:103BE00090931209809311098091A90B9091AA0BCF
:103BF000A091AB0BB091AC0B90930809809307098F
:103C000060E08AE59BDB81E08093200280911802CE
:103C10008F7780931802809118028F7B809318020F
:103C2000809118028F5F76CD8091A50B9091A60BA5
:103C3000A091A70BB091A80B90931409809313093E
:103C40008091A90B9091AA0BA091AB0BB091AC0BFA
:103C500090930A098093090980918B07811123C0F1
:103C6000809118028F5F8093180280917F08909155
:103C70008008DF91CF911F910F910C94EB1420914C
:103C80001802277081E090E0A0E0B0E004C0880F47
:103C9000991FAA1FBB1F2A95D2F720911909822BC1
:103CA0008093190926CDDF91CF911F910F9108952F
:103CB000CF93DF931F92CDB7DEB7682F9091760830
:103CC000937F90937608909119029B7F90931902AD
:103CD000909119029D7F90931902909119029E7FF5
:103CE0009093190283E79EE069830E94592E8EE526
:103CF0009EE00E94592E1092710810927208109244
:103D00007308109274080E9400340E940A0F0E94E7
:103D1000593510926F0810929A0889E680931C0218
:103D20008091180269818F3031F060937D070F9088
:103D3000DF91CF91089589E690E00F90DF91CF91C8
:103D40000C946F3DAF92BF92CF92DF92EF92FF92B1
:103D50000F931F93CF93DF9300D01F92CDB7DEB7A1
:103D60007C01CB012FE037E23A8329833C832B830C
:103D700077FF03C0EFEFFFEF02C0E1E0F0E064EB9C
:103D800070E00E94E059AC018B35910550F0463A45
:103D90008FEF580734F0870107501109040F151FE2
:103DA00071C087E08E9F90018F9F300D11242E0DE2
:103DB0003F1D240F351F37FF03C031952195310971
:103DC0008901253B310514F004EB10E08EE08E9F55
:103DD00050018F9FB00C1124C701F7FE04C0882743
:103DE00099278E199F09081719070CF461C060E024
:103DF0008E2DA4DA3CDB6C0164E670E080E090E09C
:103E00000E94FF2B34DB8C159D0514F030DB6C0118
:103E1000C114D10439F089819A81C816D90614F4E5
:103E2000DA82C98264E670E080E090E00E94FF2BB5
:103E3000E5DA6C01E3DA8C159D0514F0DFDA6C012C
:103E4000C114D10439F08B819C81C816D90614F4B1
:103E5000DC82CB82EA0CFB1CBFCFE816F90644F1EA
:103E600060E08E2D6BDA03DB009791F464E670E07E
:103E700080E090E00E94FF2BC1DA009789F48EE089
:103E8000E81AF108C80117FFE8CF80E090E0E5CF1D
:103E900029813A81821793074CF79A838983E6CF69
:103EA0002B813C818217930754F79C838B83E7CF48
:103EB000CE0101960F900F900F900F90DF91CF9150
:103EC0001F910F91FF90EF90DF90CF90BF90AF9038
:103ED0000895CF92DF92EF92FF929C0197FF04C06A
:103EE00022273327281B390B2B3D314044F097FD07
:103EF00003C08E5991093DC082569F4F3AC09C0124
:103F0000BC01990F880B990B37FD17C00E94D4553F
:103F10002DEC3CEC4CE45FE30E9433560E942159A7
:103F20006B017C0120E030E040EA50E40E94165929
:103F30001816BCF085E090E01CC00E94D4552DEC12
:103F40003CEC4CE45FE30E9433560E9421596B0124
:103F50007C0120E030E040EA50EC0E94CE5587FF23
:103F600006C0C701B6010E945B58CB0102C08BEFAF
:103F70009FEFFF90EF90DF90CF900C94161680FD8E
:103F80001092700882FF07C0909117029E7F909355
:103F900017021092190281FF05C0809117028D7FD0
:103FA000809317021092750810929A081092760862
:103FB00010926008109261081092620810926308D3
:103FC000089585ED8093BC008091BC0084FDFCCFFA
:103FD0001092EF090895E0914607F0914707309756
:103FE00029F0109249071092480719940895AC01DE
:103FF000E0914407F09145073097E1F090914B072D
:1040000080914A079817B0F090E0292F30E02617EA
:10401000370754F4DA01A20FB31F8C91D901A857C6
:10402000B64F8C939F5FF1CF10924B0760934A0776
:10403000CB01199408950895E0914B0780914A07A8
:10404000E81730F4F0E0E857F64F808190E00895EB
:104050008FEF9FEF08958091560D882399F061E0CE
:104060000E94B82A61E08091560D0E94892A61E081
:1040700070E080E090E00E94FF2B60E08091560DA0
:104080000C94892A08954F925F926F927F928F923B
:104090009F92AF92BF92CF92DF92EF92FF920F93D7
:1040A0001F93CF93DF939091610FC82FD0E09111B0
:1040B0001EC0CC0FDD1FCC0FDD1FFE01E850F44FFA
:1040C00060817181828193812AE330E040E050E099
:1040D0000E941B57CB58D04F88819981AA81BB8100
:1040E00082179307A407B50708F4A8C18BC1082F4E
:1040F000CE018757904F7C01FC01808180FF1FC05B
:10410000FE01EE0FFF1FEE0FFF1FE850F44F8081FE
:104110009181A281B381FE01EA5DF54F803A9A4513
:10412000A105B10558F080818F5F80838081823046
:1041300030F0C0936D078FDF11E002C0108210E0F5
:10414000F701808186FF2DC06E01CC0CDD1CCC0CEC
:10415000DD1CF601E850F44F60817181828193810A
:104160002AE330E040E050E00E941B57F601EB5894
:10417000F04F80819181A281B381FE01E059F04F1F
:10418000281739074A075B0758F080818F5F8083C3
:104190008081833030F000936D075DDF11E001C056
:1041A0001082F701808187FF2CC06E01CC0CDD1CD2
:1041B000CC0CDD1CF601E850F44F608171818281E6
:1041C00093812AE330E040E050E00E941B57F60163
:1041D000EB58F04F80819181A281B381C059D04FBB
:1041E00082179307A407B50758F088818F5F8883EB
:1041F0008881833030F000936D072DDF11E001C01E
:104200001882F0908D0FAF2CB12CC50102C095958E
:1042100087950A95E2F780FF11C1C12CD12CC0E02F
:10422000D0E09AE3492E512C612C712CC5010C2C45
:1042300002C0959587950A94E2F780FF10C0F601B9
:10424000EE0FFF1FEE0FFF1FE850F44F80819181AA
:10425000A281B381892B8A2B8B2B09F0E4C0FFEF5D
:10426000CF1ADF0A24E0C216D10401F7F7FE1EC000
:104270004091850F5091860F6091870F7091880F44
:10428000CE010D2E000CAA0BBB0B481759076A076D
:104290007B0750F08091740F8F5F8093740F83E0E1
:1042A0008093740F11E002C01092740FF6FE22C0CA
:1042B000111120C04091850F5091860F6091870F9A
:1042C0007091880FCE010D2E000CAA0BBB0B84172A
:1042D0009507A607B70760F08091740F8F5F8093F2
:1042E000740F8091740F11E0833020F410E002C04D
:1042F0001092740FF5FE37C0111135C04E010D2E0E
:10430000000CAA08BB088091850F9091860FA091A0
:10431000870FB091880F40916E0F50916F0F60E042
:1043200070E02A013B01480E591E6A1E7B1E48148C
:1043300059046A047B04A8F0841B950BA60BB70BE9
:1043400088169906AA06BB0660F08091740F8F5FED
:104350008093740F8091740F11E0833020F410E08B
:1043600002C01092740FF4FE36C0111136C08E01D7
:104370000D2E000C220B330B8091850F9091860F30
:10438000A091870FB091880F40916E0F50916F0FE1
:1043900060E070E06A017B01C80ED91EEA1EFB1EB8
:1043A0000C151D052E053F0548F4841B950BA60B27
:1043B000B70B80179107A207B30750F08091740FD5
:1043C0008F5F8093740F8091740F833030F436C008
:1043D0001092740F33C0112389F184E080936D072C
:1043E0002AE32C9FC0012D9F900D1124092E000C53
:1043F000AA0BBB0B8093080C9093090CA0930A0C9A
:10440000B0930B0CDF91CF911F910F91FF90EF9024
:10441000DF90CF90BF90AF909F908F907F906F90E4
:104420005F904F9018CE6081718182819381A3014A
:1044300092010E941B57C20FD31F11CFDF91CF9162
:104440001F910F91FF90EF90DF90CF90BF90AF90B2
:104450009F908F907F906F905F904F9008950F93F3
:104460001F938091EB0B882369F180910F0C0E94C0
:10447000612A019759F40E94DA2B6093210A709304
:10448000220A8093230A9093240A1CC00E94DA2BEC
:104490000091210A1091220A2091230A3091240AC6
:1044A000DC01CB01801B910BA20BB30B8093040C9E
:1044B0009093050CA093060CB093070C83E01F911A
:1044C0000F91E1CD1F910F9108950F931F9380914C
:1044D000EA0B882361F180910E0CF3D7019759F410
:1044E0000E94DA2B60931D0A70931E0A80931F0AA4
:1044F0009093200A1CC00E94DA2B00911D0A109193
:104500001E0A20911F0A3091200ADC01CB01801B7A
:10451000910BA20BB30B8093000C9093010CA09312
:10452000020CB093030C82E01F910F91ACCD1F9150
:104530000F9108950F931F938091E90B882361F1E8
:1045400080910D0CBED7019759F40E94DA2B60932D
:10455000190A70931A0A80931B0A90931C0A1CC0B4
:104560000E94DA2B0091190A10911A0A20911B0A55
:1045700030911C0ADC01CB01801B910BA20BB30B09
:104580008093FC0B9093FD0BA093FE0BB093FF0B5D
:1045900081E01F910F9177CD1F910F9108950F9397
:1045A0001F938091E80B882361F180910C0C89D7CF
:1045B000019759F40E94DA2B6093150A7093160A3A
:1045C0008093170A9093180A1CC00E94DA2B00915E
:1045D000150A1091160A2091170A3091180ADC0169
:1045E000CB01801B910BA20BB30B8093F80B909324
:1045F000F90BA093FA0BB093FB0B80E01F910F9186
:1046000042CD1F910F910895EF92FF920F931F9348
:10461000CF93DF931F921F92CDB7DEB77C01162F89
:10462000FC01828149835A8374D701E0612F60279E
:10463000F70184816ED700935D0A4981642F5A8106
:10464000752F6F3F710519F010F06FEF70E0F701F3
:104650008081CAD781E0F70184870F900F90DF91A6
:10466000CF911F910F91FF90EF9008951F920F929D
:104670000FB60F9211240BB60F922F933F934F93C7
:104680005F936F937F938F939F93AF93BF93EF93BA
:10469000FF93E0915B0AF0915C0A1995FF91EF910D
:1046A000BF91AF919F918F917F916F915F914F914A
:1046B0003F912F910F900BBE0F900FBE0F901F9048
:1046C0001895DC0170E0FB01E050FD4FE491149679
:1046D000EC93149750E0FA01E050FD4FE4911596E9
:1046E000EC93159766547D4FFB018491E82FF0E021
:1046F000EE0FFF1FEA57FD4F8591949117969C93FB
:104700008E931697FA01E654FD4F449150E0440F02
:10471000551F40565D4FFA018591949119969C93CF
:104720008E931897FB016491E62FF0E0EE0FFF1FC8
:10473000E459FD4F859194911B969C938E931A9703
:104740002F5F3F4F49E3429FC001439F900D1124CB
:104750008E38FFE69F0710F08DE89FE61D969C932C
:104760008E931C9708951F920F920FB60F921124EB
:104770000BB60F922F923F924F925F926F927F9261
:104780008F929F92AF92BF92CF92DF92EF92FF9261
:104790000F931F932F933F934F935F936F937F9349
:1047A0008F939F93AF93BF93EF93FF93CF93DF9339
:1047B000CDB7DEB72997DEBFCDBF8CE49EEF9093D7
:1047C0002501809324018091E60B811105C0809121
:1047D000E50B8111B9C02EC252E7E52E5DE0F52E42
:1047E000C12CD12C00E010E0F801EF51F44F808192
:1047F000882309F49CC0F601E659F24F8081BBD7AB
:104800004C019801220F331F3B832A83F901E7569D
:10481000F44F808191818816990610F491828082EC
:10482000EA81FB81EF56F44F8081918188159905CB
:1048300010F4918280820E94372CA801440F551FEA
:10484000440F551F59874887FA01E55BF54F4080B3
:10485000518062807380AB01BC014419550966091F
:1048600077098091570D9091580D092E000CAA0BD5
:10487000BB0B84179507A607B70708F058C0F601C9
:10488000EE59F24F808191818815990564F4F80101
:10489000E357F44F8081882311F051E059838081E0
:1048A000811101C01982F601E65AF24F808191818F
:1048B000D801AF55B44F5D01881699065CF4F80134
:1048C000E357F44F8081811102C0B1E0B983808148
:1048D000811108C0E981EE2329F0D5018C91811165
:1048E0006CC006C0F5018081882309F499C1198242
:1048F000E885F985EB55F44F4081518162817381E0
:10490000EA81FB81EB52F44F80819181A0E0B0E01D
:10491000481759076A077B0750F080819181892BDE
:1049200031F0F801E352F44F808181117CC10F5FB7
:104930001F4FF2E0CF0ED11C2FEFE21AF20A043023
:10494000110509F051CF43CF8091A8099091A90991
:1049500001969093A9098093A8092091A809309104
:10496000A9098091D50B9091D60B2817390708F427
:1049700061C185E08093AA09F894109220011092F9
:104980002101109225011092240180912101809330
:104990002101809121018093210180912101809347
:1049A0002101809173008093730078941092E50B3D
:1049B00061E08091590DADD53DC18091E60B882312
:1049C00009F496CF54D7E885F985E55BF54F608308
:1049D000718382839383F5011082E885F985EB5515
:1049E000F44F6081718182819381D7012C91022ED5
:1049F000000C330B440B550B0E941B57672B682B85
:104A0000692B49F434D7E885F985E55CF54F608377
:104A1000718382839383E885F985EB55F44F608138
:104A2000718182819381F7012081220F330B032E44
:104A3000000C440B550B0E941B57672B682B692BEE
:104A400049F415D7E885F985E55DF54F60837183F5
:104A500082839383E885F985EB55F44F60817181FA
:104A600082819381D701BC902B2D0B2C000C330B32
:104A7000440B550B0E941B572B2DBB0C330B2150A5
:104A800031094901330FAA08BB08681579058A0561
:104A90009B0509F049C0EBD64B015C01E885F9851F
:104AA000E55CF54F1F0120813181428153812C83C8
:104AB0003D834E835F83F7016081062E000C770BE8
:104AC0009B012150310948EE53E0249FC001259FEE
:104AD000900D349F900D11240E94E059072E000C78
:104AE000880B990B0E94D4552B013C018C819D8130
:104AF000881A990AB40180E090E00E94D2559B0187
:104B0000AC01C301B2010E94F357E885F985EB536C
:104B1000F44F6083718382839383A9D6D1016D930F
:104B20007D938D939C931397E885F985EB55F44F0E
:104B30006081718182819381F701A080AA0CBB08FA
:104B400095010B2C000C440B550B0E941B57F1E0F8
:104B5000AF1AB1084501BB0CAA08BB086815790556
:104B60008A059B0509F04CC082D64B015C01288563
:104B70003985255D354F1901D9012D913D914D9113
:104B80005C912C833D834E835F83F7012081022E4D
:104B9000000C330B40EA5FE0249FC001259F900D7D
:104BA000349F900D1124805D9740B901660F771FE7
:104BB0000E94E059072E000C880B990B0E94D455D7
:104BC0002B013C018C819D81881A990AB40180E0F7
:104BD00090E00E94D2559B01AC01C301B2010E943A
:104BE000F357E885F985EB54F44F60837183828332
:104BF00093833DD6D1016D937D938D939C931397B1
:104C0000E885F985EB55F44F80819181A281B381CC
:104C10000196A11DB11D80839183A283B38368CEC9
:104C200081E0808364CE0093AA0961E08091590DF0
:104C300070D47DCE29960FB6F894DEBF0FBECDBFDF
:104C4000DF91CF91FF91EF91BF91AF919F918F91A4
:104C50007F916F915F914F913F912F911F910F9194
:104C6000FF90EF90DF90CF90BF90AF909F908F908C
:104C70007F906F905F904F903F902F900F900BBE62
:104C80000F900FBE0F901F9018951F920F920FB6A6
:104C90000F9211240BB60F920F931F932F933F93F4
:104CA0004F935F936F937F938F939F93AF93BF9334
:104CB000CF93DF93EF93FF9380915F0F9091600FFD
:104CC0009093A5008093A400C091250AD0E08E01A6
:104CD0000C50144F60E0F80180811BD461E0F801B2
:104CE000808117D487E290E00197F1F760E0F80146
:104CF00080810FD4FE01E051F44F81E08083609108
:104D0000E70B662339F0CE01019670E00E94E0596E
:104D10008093250AFF91EF91DF91CF91BF91AF91E1
:104D20009F918F917F916F915F914F913F912F91C3
:104D30001F910F910F900BBE0F900FBE0F901F9001
:104D400018951F920F920FB60F9211240BB60F9267
:104D50002F933F934F935F936F937F938F939F9383
:104D6000AF93BF93EF93FF938091B900887F803614
:104D700009F49CC068F5883209F45BC090F4803176
:104D800009F454C038F4882309F4F6C0883009F4D3
:104D90004DC0F5C0883109F44CC0803209F45DC0C3
:104DA000EEC0803409F468C048F4803309F455C07B
:104DB000883309F0E4C08093EE09D8C0803509F447
:104DC0004FC0883509F45DC0883409F0D8C0D6C01A
:104DD000883909F4C7C0A8F4883709F467C038F4E3
:104DE000883609F463C0803709F460C0C8C08838C9
:104DF00009F4B8C0803909F45FC0803809F0BFC039
:104E00005BC0803B09F486C038F4803A09F466C080
:104E1000883A09F47FC0B3C0803C09F4A7C0883C3D
:104E200009F4A4C0883B09F48AC0A9C08091140A7F
:104E300010C09091130A8091120A981770F5E091B2
:104E4000130A81E08E0F8093130AF0E0EE50F64FC4
:104E500080818093BB0085EC86C08093EE098EC074
:104E6000E091130A81E08E0F8093130A8091BB00BA
:104E7000F0E0EE50F64F80839091130A8091120A71
:104E80006EC0E091130A81E08E0F8093130A809127
:104E9000BB00F0E0EE50F64F80838091F109811164
:104EA0006DC081E08093F00984EA61C083E0809363
:104EB000EF091092ED09CFCF8091ED09803208F013
:104EC00051C0E091ED0981E08E0F8093ED09809152
:104ED000BB00F0E0E353F64F8083BDCF85EC8093B9
:104EE000BC001092EF098091ED09803230F4E0911E
:104EF000ED09F0E0E353F64F10826091ED0970E0A8
:104F0000E0914007F09141078DEC99E019951092DE
:104F1000ED0935C084E08093EF091092CC0910921E
:104F2000CB09E0914207F091430719958091CB0995
:104F3000811105C081E08093CB091092AB09E0910B
:104F4000CC0981E08E0F8093CC09F0E0E555F64F57
:104F500080818093BB009091CC098091CB099817F8
:104F600008F479CF85E88093BC0009C085EC809374
:104F7000BC001092EF0903C01092EE0922D8FF91F5
:104F8000EF91BF91AF919F918F917F916F915F91C1
:104F90004F913F912F910F900BBE0F900FBE0F902E
:104FA0001F9018954091CB09262F30E0240F311D1A
:104FB00021323105DCF42091EF092430C9F4FC01E1
:104FC00080E090E0861758F43091CB092191DC0104
:104FD000A555B64FA30FB11D2C930196F3CF809129
:104FE000CB09680F6093CB0980E0089581E00895B4
:104FF00082E008951092EF0981E08093F109109208
:10500000F00961E084E185D261E085E182D2E9EBDB
:10501000F0E080818E7F808380818D7F808388E433
:105020008093B80085E48093BC000895CF92DF920E
:10503000EF92FF920F931F93CF93DF936C017A014E
:105040008B01C0E0D0E0CE15DF0589F0D8016D916D
:105050008D01D601ED91FC910190F081E02DC6010A
:105060001995892B11F47E0102C02196ECCFC7015E
:10507000DF91CF911F910F91FF90EF90DF90CF9034
:105080000895FC01A089B1898C91A689B78982FD18
:105090000FC09C91818D8F5F8F73228D821749F095
:1050A000218DDF01A20FB11D5D969C93818F089524
:1050B0008C910895FC01538D448D252F30E0842F71
:1050C00090E0821B930B541710F0CF960895019730
:1050D0000895FC01918D828D981761F0828DDF011A
:1050E000A80FB11D5D968C91928D9F5F9F73928FDB
:1050F00090E008958FEF9FEF0895FC01918D828DD0
:10510000981731F0828DE80FF11D858D90E008959C
:105110008FEF9FEF0895FC01918D228D892F90E0F4
:10512000805C9F4F821B91098F739927089580E1BE
:105130009CE0F1DF21E0892B09F420E0822F089523
:105140008DEA9CE0E8DF21E0892B09F420E0822F42
:105150000895FC01848DDF01A80FB11DA35ABF4F34
:105160002C91848D90E001968F739927848FA68966
:10517000B7892C93A089B1898C9180648C93938D8D
:10518000848D981306C00288F389E02D80818F7D7D
:1051900080830895EF92FF920F931F93CF93DF9335
:1051A000EC0181E0888F9B8D8C8D981305C0E88978
:1051B000F989808185FD23C0F62E0B8D10E00F5FED
:1051C0001F4F0F731127E02E8C8DE8120BC00FB606
:1051D00007FCFACFE889F989808185FFF5CFCE01F8
:1051E000B8DFF2CF8B8DFE01E80FF11DE35AFF4FC0
:1051F000F0820B8FEA89FB898081806207C0EE898B
:10520000FF896083E889F98980818064808381E0F7
:1052100090E0DF91CF911F910F91FF90EF90089553
:10522000CF93DF93EC01888D8823C1F0EA89FB8955
:10523000808185FD05C0A889B9898C9186FD0EC045
:105240000FB607FCF5CF808185FFF2CFA889B98919
:105250008C9185FFEDCFCE017CDFE8CFDF91CF9140
:10526000089580E090E0892B19F06ADF811120C059
:1052700080E090E0892B41F080E090E0892B21F0E4
:105280000E940000811117C080E090E0892B19F086
:105290004EDF811113C080E090E0892BA1F080E007
:1052A00090E0892B81F00E94000081110AC00895CE
:1052B0000E940000DDCF0E940000E6CF0E940000A7
:1052C000EACF0C940000089590E0FC013197E231A0
:1052D000F10508F04EC08827EA53FF4F8F4F0C941A
:1052E000F359809180008F7703C0809180008F7D7B
:1052F00080938000089580918000877FF9CF84B5E6
:105300008F7702C084B58F7D84BD08958091B000F1
:105310008F7703C08091B0008F7D8093B000089597
:10532000809190008F7707C0809190008F7D03C09F
:1053300080919000877F8093900008958091A000D5
:105340008F7707C08091A0008F7D03C08091A0005F
:10535000877F8093A0000895809120018F7707C0F8
:10536000809120018F7D03C080912001877F8093F1
:105370002001089508950E940C5C1F920F920FB6B1
:105380000F9211240BB60F922F933F934F935F937D
:105390006F937F938F939F93AF93BF93EF93FF93FD
:1053A00080E19CE0D6DEFF91EF91BF91AF919F919C
:1053B0008F917F916F915F914F913F912F910F90BE
:1053C0000BBE0F900FBE0F901F9018951F920F925B
:1053D0000FB60F9211240BB60F922F933F934F935A
:1053E0005F936F937F938F939F93AF93BF93EF934D
:1053F000FF9380E19CE045DEFF91EF91BF91AF917B
:105400009F918F917F916F915F914F913F912F91DC
:105410000F900BBE0F900FBE0F901F9018951F920C
:105420000F920FB60F9211240BB60F922F933F934A
:105430004F935F936F937F938F939F93AF93BF939C
:10544000EF93FF938DEA9CE084DEFF91EF91BF9193
:10545000AF919F918F917F916F915F914F913F910C
:105460002F910F900BBE0F900FBE0F901F901895AD
:105470001F920F920FB60F9211240BB60F922F931B
:105480003F934F935F936F937F938F939F93AF93CC
:10549000BF93EF93FF938DEA9CE0F3DDFF91EF91D3
:1054A000BF91AF919F918F917F916F915F914F913C
:1054B0003F912F910F900BBE0F900FBE0F901F903A
:1054C0001895CF93DF93282F30E0F901EA5BFC4F6A
:1054D0008491F901E050FD4FD491F901E654FD4F5C
:1054E000C491CC2389F08111EFDEEC2FF0E0EE0FB8
:1054F000FF1FE056FD4FA591B491EC91ED2381E0A3
:1055000090E021F480E002C080E090E0DF91CF9154
:1055100008951F93CF93DF93282F30E0F901EA5BC2
:10552000FC4F8491F901E050FD4FD491F901E6540C
:10553000FD4FC491CC23C1F0162F8111C5DEEC2F95
:10554000F0E0EE0FFF1FEA57FD4FA591B4918FB722
:10555000F894111105C09C91ED2FE095E92302C04C
:10556000EC91ED2BEC938FBFDF91CF911F910895BC
:10557000CF93DF9390E0FC01E050FD4F2491FC01BC
:10558000E654FD4F8491882361F190E0880F991FC4
:10559000FC01E459FD4FC591D491FC01EA57FD4F40
:1055A000A591B491611109C09FB7F89488812095A5
:1055B00082238883EC912E230BC0623061F49FB765
:1055C000F8943881822F809583238883EC912E2B49
:1055D0002C939FBF06C08FB7F894E8812E2B2883A9
:1055E0008FBFDF91CF9108951F93CF93DF93182F33
:1055F000EB0161E0BDDF209711F460E004C0CF3F14
:10560000D10531F461E0812FDF91CF911F9181CFDE
:10561000E12FF0E0EA5BFC4FE4914E2F50E0FA01FD
:105620003197E231F10508F09DC08827E852FF4F1D
:105630008F4F0C94F35984B5806884BDC7BD97C063
:1056400084B5806284BDC8BD92C0809180008068AE
:1056500080938000D0938900C093880088C0809197
:105660008000806280938000D0938B00C0938A007A
:105670007EC080918000886080938000D0938D00F0
:10568000C0938C0074C08091B00080688093B0009B
:10569000C093B3006CC08091B00080628093B00072
:1056A000C093B40064C080919000806880939000A3
:1056B000D0939900C09398005AC080919000806266
:1056C00080939000D0939B00C0939A0050C080912B
:1056D0009000886080939000D0939D00C0939C00C0
:1056E00046C08091A00080688093A0008091A000B7
:1056F0008F7B8093A000D093A900C093A80037C0EF
:105700008091A00080628093A000D093AB00C093F2
:10571000AA002DC08091A00088608093A000D09343
:10572000AD00C093AC0023C08091200180688093BD
:105730002001D0932901C093280119C08091200134
:10574000806280932001D0932B01C0932A010FC067
:1057500080912001886080932001D0932D01C09317
:105760002C0105C0C038D1050CF04CCF46CFDF91DD
:10577000CF911F910895863308F0865390917B0056
:10578000282F2870977F922B90937B0087708064DE
:1057900080937C0080917A00806480937A0080916D
:1057A0007A0086FDFCCF809178002091790090E00E
:1057B000922B08953FB7F8948091630A9091640A00
:1057C000A091650AB091660A26B5A89B05C02F3F37
:1057D00019F00196A11DB11D3FBFBA2FA92F982F17
:1057E0008827820F911DA11DB11DBC01CD0142E092
:1057F000660F771F881F991F4A95D1F708958F92DA
:105800009F92AF92BF92CF92DF92EF92FF926B0185
:105810007C01D0DF4B015C01C114D104E104F1042F
:10582000E9F0C8DFDC01CB0188199909AA09BB0995
:10583000883E9340A105B10578F321E0C21AD10852
:10584000E108F10888EE880E83E0981EA11CB11CC7
:10585000C114D104E104F10421F7DECFFF90EF90F1
:10586000DF90CF90BF90AF909F908F9008952FB70B
:10587000F89460915F0A7091600A8091610A90913A
:10588000620A2FBF08951F920F920FB60F92112434
:105890002F933F938F939F93AF93BF9380915F0A12
:1058A0009091600AA091610AB091620A30915E0AFB
:1058B00023E0230F2D3720F40196A11DB11D05C053
:1058C00026E8230F0296A11DB11D20935E0A809346
:1058D0005F0A9093600AA093610AB093620A809174
:1058E000630A9091640AA091650AB091660A0196D4
:1058F000A11DB11D8093630A9093640AA093650A69
:10590000B093660ABF91AF919F918F913F912F9174
:105910000F900FBE0F901F901895E82FF0E0EE0F3C
:10592000FF1FEB5FFD4F7183608390E0883091052E
:1059300008F062C0FC018827E651FF4F8F4F0C949E
:10594000F359809169008C7F482B40936900E89A55
:10595000089580916900440F551F440F551F837FA0
:10596000482B40936900E99A08958091690074E09A
:10597000440F551F7A95E1F78F7C482B40936900BF
:10598000EA9A08958091690066E0440F551F6A9570
:10599000E1F78F73482B40936900EB9A089580914B
:1059A0006A008C7F482B40936A00EC9A089580919E
:1059B0006A00440F551F440F551F837F482B4093A7
:1059C0006A00ED9A089580916A0024E0440F551F03
:1059D0002A95E1F78F7C482B40936A00EE9A089550
:1059E00080916A0096E0440F551F9A95E1F78F73F6
:1059F000482B40936A00EF9A08951F920F920FB6BA
:105A00000F9211240BB60F922F933F934F935F93F6
:105A10006F937F938F939F93AF93BF93EF93FF9376
:105A2000E0911302F09114021995FF91EF91BF914B
:105A3000AF919F918F917F916F915F914F913F9126
:105A40002F910F900BBE0F900FBE0F901F901895C7
:105A50001F920F920FB60F9211240BB60F922F9335
:105A60003F934F935F936F937F938F939F93AF93E6
:105A7000BF93EF93FF93E0911102F09112021995F9
:105A8000FF91EF91BF91AF919F918F917F916F9116
:105A90005F914F913F912F910F900BBE0F900FBED2
:105AA0000F901F9018951F920F920FB60F9211240E
:105AB0000BB60F922F933F934F935F936F937F9308
:105AC0008F939F93AF93BF93EF93FF93E091070260
:105AD000F09108021995FF91EF91BF91AF919F91BD
