:10000000C4C100000C946F1C0C94441C0C94191C6B
:100010000C94EE1B0C94C31B0C94981B0C946D1B3E
:100020000C94421B0C94A1260C94A1260C94A1269E
:10003000DDC100000C94DC1CD9C10000D7C1000058
:10004000D5C100000C943227D1C10000CFC10000FF
:10005000CDC10000CBC10000C9C100000C94881ABA
:10006000C5C100000C947D180C945418BFC1000049
:10007000BDC10000BBC10000B9C10000B7C1000094
:100080000C940527B3C10000B1C10000AFC100004E
:10009000ADC10000ABC10000A9C100000C94522505
:1000A000A5C10000A3C100000C94D8269FC1000088
:1000B0009DC100000C94862099C100000C94AB26D1
:1000C00095C1000093C100000C94591D0C942B188D
:1000D0000C9402188BC1000089C1000087C1000088
:1000E00085C10000400E4A164A164A164A164A169C
:1000F0004A164A164A164A164A164A164A164A1600
:100100004A168D0E4A169D0EE50E090F100F310F7F
:10011000590F5C0F630F9A0F02104A164A164A16BF
:1001200029104A164A164A164A164A1605114A1640
:100130004A164A1615114A164A164A164A164A16F9
:100140004A164A164A164A164A164A164A164A16AF
:1001500029114A164A164A1635114A163B116A12D7
:100160007B124A164A164A1684124A16F2129D1338
:100170004A160714B2134A164A164A161F140D16C9
:1001800024163A164016C417C717B617BA17C01761
:10019000FE17CB17CF17D517D917DD17E317E717BA
:1001A000EB17FE17F117F517F917601965196A199A
:1001B00074197E19F719881990199819A219AC1990
:1001C000B619C519CF19F719D919E319ED19141B67
:1001D0001C1BE61AEE1AFA1A071B281B351B036EA6
:1001E000DB363D9A9999993DABAAAA2A3E000000B8
:1001F000803F084AD73B3BCE016E84BCBFFDC12F78
:100200003D6C74319ABD56833DDA3D00C77F11BE07
:10021000D9E4BB4C3E916BAAAABE000000803F0708
:100220002C7AA5BA6CC590DA3B9365FC8BBC53F86D
:1002300010FD3C5692834DBD879D3AB63DCBC9BF5C
:100240005BBE73DA0FC93F05A84CCDB2D44EB938A6
:1002500036A9020C50B9918688083CA6AAAA2ABEE3
:10026000000000803F0000002100240027002A0039
:100270002D003000330001010000040107010A01D4
:1002800000002200250028002B002E003100340041
:1002900002010000050108010B01000020002300FD
:1002A000260029002C002F0032000001000003016D
:1002B00006010901050505050705080808080202E9
:1002C00002020A0A080804040404010101010101F0
:1002D00001010303030303030303040707070C0CD3
:1002E0000C0C0C0C0C0C020202020606060606069A
:1002F00006060B0B0B0B0B0B0B0B0102102020083F
:100300000810204010204080020102010804020170
:1003100001020408102040808040201008040201DF
:100320008004020180402010080402010804020138
:1003300001020408102040800102040810204080BF
:1003400000000A0B02090C0D0E080703040100004F
:10035000000000000000000000000000000000009D
:10036000000000000000000000000000121110005A
:10037000000000000000000000000000000000007D
:100380000000000000008B44864411241FBECFEF04
:10039000D1E2DEBFCDBF00E00CBF19E0A0E0B2E0CB
:1003A000EAE8FAE900E00BBF02C007900D92AE3711
:1003B000B107D9F721E1AEE7B9E001C01D92A4343D
:1003C000B207E1F711E0C4ECD1E000E006C02197EC
:1003D0000109802FFE010E941547C33CD10780E030
:1003E0000807A9F70E9405320C94344D09CECF932B
:1003F000C62F843B38F4682F70E080E090E00E94C4
:10040000BC4B04C060E070E084E393E46093B60901
:100410007093B7098093B8099093B9090E94112C81
:100420008EEE95E00E942E286091B6097091B70972
:100430008091B8099091B9090E94202B6091BB0965
:1004400070E080E090E00E94BC4B2091B6093091B2
:10045000B7094091B8095091B9090E941E470E94FE
:100460002C48CB010E948D2B6EEE72E080E090E074
:100470000E94441AE0910811F0E0CF01880F991F03
:10048000E80FF91FED50F04F80818F7B8083CC23E4
:1004900031F060E08CE690E0CF910C94DA30CF91AF
:1004A0000895CF92DF92EF92FF9280EA90E10E944E
:1004B000962C009771F48BEF95E00E94A42962E3DB
:1004C00070E080E090E00E94441A82EB90E10E948C
:1004D000962C69E370E00E94EE4680E090E00E9476
:1004E000BA4B6B017C0120E030E0A9010E94B64BC1
:1004F000882351F020E030E040E050E4C701B6012D
:100500000E941E476B017C0186E096E00E942E2827
:1005100042E0C701B6010E94512A82E196E00E94A2
:10052000A429C701B6010E942C48CB01FF90EF908F
:10053000DF90CF900895CF92DF92EF92FF9282EBFF
:1005400090E10E94962C009771F485E196E00E945C
:10055000A42962E370E080E090E00E94441A82EBFC
:1005600090E10E94962C69E370E00E94EE4680E0E4
:1005700090E00E94BA4B6B017C0120E030E0A901C1
:100580000E94B64B882351F020E030E040E050E478
:10059000C701B6010E941E476B017C0181E296E013
:1005A0000E942E2842E0C701B6010E94512A82E132
:1005B00096E00E94A429C701B6010E942C48CB01F5
:1005C000FF90EF90DF90CF900895CF93DF93B3DF4C
:1005D000EC0164E670E080E090E00E94441A61DF84
:1005E000BC01CE010E94312F0E947C1A6093050B42
:1005F0007093060B8093070B9093080BDF91CF91BC
:100600000895CF93DF931F92CDB7DEB7682F9091F7
:10061000120B937F9093120B909108029B7F909303
:100620000802909108029D7F909308029091080221
:100630009E7F9093080282EF90E169830E949A1C4A
:100640008EED90E10E949A1C1092241110922511B7
:1006500010922611109227110E941A2F0E94AE2983
:100660000E946B291092100B1092570B89E6809311
:100670000A02698189E690E00F90DF91CF910C9496
:10068000DA30CF92DF92EF92FF920F931F93CF93C6
:10069000DF9300D01F92CDB7DEB78C01CB012FE0E6
:1006A00037E23A8329833C832B8364EB70E00E941A
:1006B00002477C018EE296E00E942E28C8010E942B
:1006C000882B8EE993E00E942E28C7010E94882B78
:1006D00084E396E00E942E28C7010E947A2B8BE5C6
:1006E000E816F10450F086EAE8168FEFF8062CF0D1
:1006F000C8010797E80EF91E44C06801095F1F4F43
:100700000E0D1F1DC801053B110514F084EB90E090
:100710008C159D050CF44BC060E08C2D68DE0BDF62
:10072000009739F029813A818217930714F49A834C
:10073000898364E670E080E090E00E94441AB1DEB4
:10074000009739F02B813C818217930714F49C8326
:100750008B838FE0C80ED11CD5CF081719073CF149
:1007600060E0802F44DEE7DE009789F464E670E005
:1007700080E090E00E94441A94DE009781F40F50CC
:100780001109C701F7FEE9CF80E090E0E6CF2981AB
:100790003A818217930754F79A838983E7CF2B8195
:1007A0003C81821793075CF79C838B83E8CF85E4B9
:1007B00096E00E942E2889819A810E94882B8FE4DE
:1007C00096E00E942E288B819C810E947A2BCE017C
:1007D00001960F900F900F900F90DF91CF911F9186
:1007E0000F91FF90EF90DF90CF9008950F931F939C
:1007F000CF93DF93EC01865A9F4F853B910568F5B7
:10080000BE018AE590E03DDFFC01C281D3816081B9
:1008100071816C5E7F4F072E000C880B990B0E9434
:10082000BC4B25E435E548E552E40E94B64B87FF12
:1008300006C08AE596E00E94A42980E0A3C0BE011C
:100840006C5E7F4F072E000C880B990B0E94BC4BEF
:1008500026E732E942E352E48CC0CB35D105A4F15E
:100860006AE570E08AE590E00CDFFC01028113810B
:10087000608171816C5E7F4F072E000C880B990B95
:100880000E94BC4B25E435E548E552E40E94B64B96
:1008900087FDCFCFB8016C5E7F4F072E000C880B11
:1008A000990B0E94BC4B26E732E942E352E40E94D6
:1008B000B64B87FDBECF6AE570E06C1B7D0B84EB09
:1008C00090E08C1B9D0B32C066EA7FEF8AE590E0DA
:1008D000D8DEFC0102811381608171816C5E7F4FE3
:1008E000072E000C880B990B0E94BC4B25E435E5C4
:1008F00048E552E40E94B64B87FD9BCFB8016C5E81
:100900007F4F072E000C880B990B0E94BC4B26E7EB
:1009100032E942E352E40E94B64B87FD8ACF6AE592
:1009200070E06C1B7D0BCE018C549F4FAADEFC0146
:10093000C281D381608171816C5E7F4F072E000C74
:10094000880B990B0E94BC4B26E732E942E352E444
:100950000E94B64B87FD6DCFBE016C5E7F4F072EA8
:10096000000C880B990B0E94BC4B25E435E548E54B
:1009700052E40E94B64B87FD5CCF80E796E00E9470
:10098000A42981E0DF91CF911F910F91089580FDFF
:100990001092291182FF07C0909107029E7F9093C9
:1009A00007021092080281FF05C0809107028D7F27
:1009B000809307021092110B1092570B1092120B9A
:1009C0001092010B1092020B1092030B1092040B69
:1009D0000895CF92DF92EF92FF92BC01990F880B9E
:1009E000990B0E94BC4B2BED3FE049E450E40E9480
:1009F0001B4C20E030E044E353E40E94C4476B0109
:100A00007C010E94C14720E030E040EC50E40E94AD
:100A10001B4C9B01AC0160918810709189108091F2
:100A20008A1090918B100E941E4760939C107093C7
:100A30009D1080939E1090939F10C701B6010E9455
:100A4000124920E030E040EC50E40E941B4C9B0136
:100A5000AC01609184107091851080918610909106
:100A600087100E941E47609390107093911080939E
:100A7000921090939310FF90EF90DF90CF90089595
:100A80004F925F926F927F928F929F92AF92BF929E
:100A9000CF92DF92EF92FF920F931F93CF93DF934A
:100AA000CDB7DEB764970FB6F894DEBF0FBECDBFEB
:100AB000182F80914F0E9091500EA091510EB09131
:100AC000520E89879A87AB87BC878091530E90918D
:100AD000540EA091550EB091560E8D879E87AF870C
:100AE000B88BA985BA85BD0180E090E00E94BA4B21
:100AF0006B017C016091260C7091270C8091280C71
:100B00009091290C0E94BA4B9B01AC01C701B60120
:100B10000E941D472BED3FE049E450E40E941B4C2E
:100B200027ED33EA40ED50E40E941B4C20E030E01A
:100B300040E05EE30E941B4C69837A838B839C8335
:100B4000ED85FE85BF0180E090E00E94BA4B6B010D
:100B50007C016091220C7091230C8091240C909167
:100B6000250C0E94BA4B9B01AC01C701B6010E9443
:100B70001D472BED3FE049E450E40E941B4C27ED5C
:100B800033EA40ED50E40E941B4C20E030E040E0AE
:100B90005EE30E941B4C6B017C0180919810909148
:100BA0009910A0919A10B0919B10898B9A8BAB8B66
:100BB000BC8B0091120B03FF3CC18091281188234C
:100BC00049F089819A81AB81BC81B05889839A832D
:100BD000AB83BC8380912A02811104C0F7FAF094A0
:100BE000F7F8F09420E030E0A90169817A818B81E7
:100BF0009C810E94B64B882309F41BC120E030E0A1
:100C0000A901C701B6010E94B64B882309F411C19E
:100C10002BED3FE049E450E469897A898B899C890E
:100C20000E941B4C20E030E044E353E40E94C447A0
:100C30004B015C0189859A85AB85BC85AA27BB27BA
:100C40008093260C9093270CA093280CB093290C2A
:100C50008D859E85AF85B889AA27BB278093220CF6
:100C60009093230CA093240CB093250C29813A81F6
:100C70004B815C81C701B6010E941D472B013C01DD
:100C800020E030E0A9010E94B64B882309F493C00C
:100C900020E030E04CEA52E4C301B2010E94C447B4
:100CA0000E9482476D837E838F8398870E941249BA
:100CB0002B013C019B01AC010E941E479B01AC0132
:100CC000C701B6010E94C44720E030E048EA51E481
:100CD0000E941D479B01AC010E941E47A301920187
:100CE0000E941B4C2B013C012D813E814F81588578
:100CF000C501B4010E941E474B015C010E94C1471F
:100D00009B01AC01C301B2010E941B4C9B01AC01D1
:100D10006091F9097091FA098091FB099091FC09A1
:100D20000E941E476093F9097093FA098093FB09AA
:100D30009093FC09C501B4010E9412499B01AC01CA
:100D4000C301B2010E941B4C9B01AC016091F509EB
:100D50007091F6098091F7099091F8090E941E4759
:100D60006093F5097093F6098093F7099093F80959
:100D70002D813E814F815885CA01B9010E941E47CD
:100D800020E030E044E353E40E941B4C2BED3FE0B5
:100D900049E450E40E94C44729893A894B895C8917
:100DA0000E941E47609398107093991080939A1038
:100DB00090939B103EC0C501B4010E94C1479B01A6
:100DC000AC0169817A818B819C810E941B4C9B01C3
:100DD000AC016091F9097091FA098091FB09909139
:100DE000FC090E941E476093F9097093FA098093E9
:100DF000FB099093FC09C501B4010E9412499B01B3
:100E0000AC01C701B6010E941B4C9B01AC01609173
:100E1000F5097091F6098091F7099091F8090E94FF
:100E20001E476093F5097093F6098093F709909334
:100E3000F809113009F09FC080910D028F3609F436
:100E4000D0C029813A814B815C81C701B6010E94E3
:100E50001E4720E030E044E353E40E941B4C27EAA5
:100E600036E147E053E40E94C44705FF90582091C3
:100E700098103091991040919A1050919B100E94B7
:100E80001E470E942C48CB0168E671E00E94024791
:100E9000BC01990F880B990B0E94BC4B6093981072
:100EA0007093991080939A1090939B102BED3FE0D4
:100EB00049E450E40E941B4C20E030E044E353E45A
:100EC0000E94C4476B017C010E94C14720E030E0D2
:100ED00040EC50E40E941B4C9B01AC0160919410CB
:100EE0007091951080919610909197100E941E47D6
:100EF00060939C1070939D1080939E1090939F1010
:100F0000C701B6010E94124920E030E040EC50E4F5
:100F10000E941B4C9B01AC0160918C1070918D1054
:100F200080918E1090918F100E941E4760939010B8
:100F30007093911080939210909393108D859E855D
:100F4000AF85B889AA27BB278093790C90937A0C38
:100F5000A0937B0CB0937C0C89859A85AB85BC856E
:100F6000AA27BB2780937D0C90937E0CA0937F0CC7
:100F7000B093800C36C01F3FA1F52091F909309144
:100F8000FA094091FB095091FC0960919C10709105
:100F90009D1080919E1090919F100E941E4760931B
:100FA0009C1070939D1080939E1090939F102091A1
:100FB000F5093091F6094091F7095091F8096091CF
:100FC00090107091911080919210909193100E94C6
:100FD0001E4760939010709391108093921090939D
:100FE000931064960FB6F894DEBF0FBECDBFDF91AD
:100FF000CF911F910F91FF90EF90DF90CF90BF9016
:10100000AF909F908F907F906F905F904F900895DA
:10101000CF92DF92EF92FF92CF9320913D0C25303B
:1010200009F48CC1822F90E0FC01E957F14F108246
:10103000880F991FFC01E158F14F11821082211194
:1010400007C082EF90E10E949A1C8EED90E106C0ED
:101050008EED90E10E949A1C82EF90E10E949A1C12
:10106000109224111092251110922611109227111E
:101070000E94AE2968EC70E080E090E00E94441A83
:101080001092FA0A0E941A2F0E946B29ED988FEF96
:1010900097E1909315028093140260E083E00E9430
:1010A000FD1860E080E30E94CE1880914F0E909171
:1010B000500EA091510EB091520EAA27BB2740911D
:1010C000AE095091AF096091B0097091B109840FD8
:1010D000951FA61FB71F8093AE099093AF09A093E9
:1010E000B009B093B1098091530E9091540EA09124
:1010F000550EB091560EAA27BB274091AA095091D0
:10110000AB096091AC097091AD09840F951FA61FC2
:10111000B71F8093AA099093AB09A093AC09B09331
:10112000AD0980914F0E9091500EA091510EB0914B
:10113000520E8091530E9091540EA091550EB09185
:10114000560E0E947C1A60931E0C70931F0C8093A5
:10115000200C9093210C8091110B8C7F8093110BAC
:101160008091120B82FF17C081E08ADC8091120B04
:101170008B7F8093120B64E670E080E090E00E9429
:10118000441A8091570B83FDE9C08091FC0A80FDD1
:10119000E5C060E0CAC00E9478278FEF71DC8091C3
:1011A000120B877F8093120B89E680930A021092BC
:1011B000570B80912911877F8093291180912911E4
:1011C0008E7F80932911809129118D7F8093291121
:1011D00064E670E080E090E00E94441A6091430E63
:1011E0007091440E80E090E00E94BA4B6B017C014C
:1011F0008091240290912502BC0180E090E00E9441
:10120000BA4B26E636E646EA5FE30E941B4C9B019A
:10121000AC01C701B6010E94E74818163CF4809162
:101220002911816080932911C1E001C0C0E0609163
:10123000450E7091460E80E090E00E94BA4B6B0123
:101240007C018091280290912902BC0180E090E00D
:101250000E94BA4B26E636E646EA5FE30E941B4C44
:101260009B01AC01C701B6010E94E748181634F48F
:1012700080912911826080932911C2E060913B0E18
:1012800070913C0E80E090E00E94BA4B6B017C01B3
:101290008091220290912302BC0180E090E00E94A4
:1012A000BA4B23E333E343E35FE30E941B4C9B0110
:1012B000AC01C701B6010E94B64B87FF06C0809102
:1012C0002911816080932911C3E060913D0E7091D6
:1012D0003E0E80E090E00E94BA4B6B017C01809151
:1012E000260290912702BC0180E090E00E94BA4B58
:1012F00023E333E343E35FE30E941B4C9B01AC0118
:10130000C701B6010E94B64B87FF07C08091291123
:10131000826080932911C4E002C0CC2329F080911F
:1013200029118860809329116C2F89E690E0CF9174
:10133000FF90EF90DF90CF900C94DA3082EF90E145
:101340000E949A1C8EED90E10E949A1C109224112A
:10135000109225111092261110922711CF91FF9013
:10136000EF90DF90CF900895CF93DF9300D0CDB76B
:10137000DEB78091F2099091F30901969093F309F9
:101380008093F2098091D6098B83EB8181E090E014
:10139000E11102C080E090E0DC01A15DB14F8C91D1
:1013A0008823A1F084E0E89FF0011124E95EF14F69
:1013B00060817181828193812AE330E040E050E0D6
:1013C0000E94034D233C81E0380710F020E030E01C
:1013D0003A83298382E896E00E942E2889819A81A7
:1013E0000E946F288EE896E00E942E288B816AE08A
:1013F00070E00E94362B89819A81892B09F4E3C021
:101400008091F2099091F309029708F4DCC0809171
:10141000080282FD18C089E996E00E94A4290E9472
:101420007C1A60930C0B70930D0B80930E0B9093B2
:101430000F0B80910802846080930802809107025C
:1014400082608093070282EF90E10E949A1C8EEDE9
:1014500090E10E949A1C1092241110922511109272
:101460002611109227118091570B829581708093DD
:10147000D70984EA96E00E942E2889EB96E00E9424
:101480002E2880911C0C90911D0C0E946F288BEED1
:1014900093E00E942E2880911A0C90911B0C0E94C0
:1014A000772864E670E080E090E00E94441A0E9491
:1014B0001A2F40914F0E5091500E6091510E709125
:1014C000520E80911C0C90911D0C841B950BA0E07A
:1014D000B0E08093DC099093DD09A093DE09B0931E
:1014E000DF094091530E5091540E6091550E70914A
:1014F000560E80911A0C90911B0C841B950BA0E04A
:10150000B0E08093D8099093D909A093DA09B093F9
:10151000DB090E946B2983EB96E00E942E286091E4
:10152000DC097091DD098091DE099091DF094AE0C4
:101530000E942F288BEE93E00E942E286091D809FC
:101540007091D9098091DA099091DB094AE00E94F3
:101550002F2882EC95E00E94A429ED988FEF97E167
:10156000909315028093140260E080E30E94CE18ED
:1015700060E083E00E94FD188091110B837021F0E0
:1015800084EF91E00E945F278091110B8C7F809304
:10159000110B8091120B82FF02C081E001C08FEF1E
:1015A0006FDA1092F9091092FA091092FB09109261
:1015B000FC091092F5091092F6091092F7091092A1
:1015C000F8090E94E62F0F900F900F90DF91CF91B6
:1015D00008952F923F924F925F926F927F928F92D7
:1015E0009F92AF92BF92CF92DF92EF92FF920F93B2
:1015F0001F93CF93DF93EA014801590117010E941D
:10160000BA4B20E030E040E051E40E941B4C20E95E
:101610003DED43EA51E40E94C4472B013C01C50162
:10162000B4010E94BA4B20E030E040E051E40E9457
:101630001B4C20E93DED43EA51E40E94C4474B01B5
:101640005C01C301B2010E94F2480E942C486B0168
:10165000770FEE08FF08C701B6010E94BA4B9B0145
:10166000AC01C301B2010E941D4720E030E040E020
:101670005FE30E94E74818162CF48FEFC81AD80AC7
:10168000E80AF80AC092160CD092170CE092180CD7
:10169000F092190CC501B4010E94F2480E942C4836
:1016A0006B01770FEE08FF08C701B6010E94BA4B25
:1016B0009B01AC01C501B4010E941D4720E030E050
:1016C00040E05FE30E94E74818162CF48FEFC81A39
:1016D000D80AE80AF80AC092120CD092130CE092D1
:1016E000140CF092150CD093110CC093100CB10196
:1016F000330C880B990B0E94BC4B20910E02309149
:101700000F0240911002509111020E941B4C0E9446
:10171000314870930F0C60930E0C87EC96E00E949A
:101720002E286091160C7091170C8091180C9091D6
:10173000190C4AE00E942F2882ED96E00E942E2884
:101740006091120C7091130C8091140C9091150CF7
:10175000DF91CF911F910F91FF90EF90DF90CF908D
:10176000BF90AF909F908F907F906F905F904F90C1
:101770003F902F900C942B2B0E941A2F61E080E356
:101780000E94CE181092D2091092D3091092D40957
:101790001092D5091092CE091092CF091092D0095B
:1017A0001092D10910927D0C10927E0C10927F0C39
:1017B0001092800C1092790C10927A0C10927B0C83
:1017C00010927C0C4091160C5091170C6091180CE3
:1017D0007091190C50931D0C40931C0C8091120CAD
:1017E0009091130CA091140CB091150C90931B0CBC
:1017F00080931A0C452B462B472B09F465C0892B87
:101800008A2B8B2B09F460C08091110B836080932D
:10181000110B86ED96E00E942E288091100C90917D
:10182000110C0E946F288CE299E00E942E28809172
:101830000E0C90910F0C0E94772810922911109293
:10184000260C1092270C1092280C1092290C109242
:10185000220C1092230C1092240C1092250C60E0A4
:1018600083E00E94CE1843E050E068E078E081E039
:101870000E94D21A2091120C3091130C6091160C18
:101880007091170C41E081E00E9485284091100C76
:101890005091110C6091281182EF90E10E94AD1CD3
:1018A00040910E0C50910F0C60912A028EED90E148
:1018B0000E94AD1C0E947C1A609324117093251124
:1018C000809326119093271108958F929F92AF9243
:1018D000BF92CF92DF92EF92FF920F931F93CF931D
:1018E000DF93EC010E94F603882309F4F0C02BED8E
:1018F0003FE049E450E46091981070919910809114
:101900009A1090919B100E941B4C20E030E044E321
:1019100053E40E94C4476B017C010E94C14720E050
:1019200030E040EC50E40E941B4C9B01AC01609104
:101930009C1070919D1080919E1090919F100E941C
:101940001D47609394107093951080939610909318
:101950009710C701B6010E94124920E030E040EC28
:1019600050E40E941B4C9B01AC016091901070915F
:10197000911080919210909193100E941E47609355
:101980008C1070938D1080938E1090938F1084E044
:101990008093120B8093FD098091570B8B7F80936E
:1019A000570B1092F9091092FA091092FB09109244
:1019B000FC091092F5091092F6091092F70910929D
:1019C000F809209709F473C080EE96E00E942E2853
:1019D000CE010E947A2BBE01D7FF04C0662777276D
:1019E0006C1B7D0B072E000C880B990B0E94BC4BC7
:1019F00027E330E240EC5EE30E941B4C0E94F24879
:101A00006B017C018EEE96E00E942E28C701B60184
:101A10000E94202BC701B6010E9431484B01A12C26
:101A2000B12C60912B0270912C0280E090E00E941A
:101A3000BA4B26E636E646E65FE30E941B4C0E9460
:101A40002C486B017C0180912D0290912E02BC01EB
:101A500080E090E00E94BA4B2DEC3CEC4CE45FE35C
:101A60000E941B4C0E943148760195018401AB0114
:101A7000C501B401AEDD9091120B8091FD091C16D9
:101A80001D0644F421E02093281190629093120BDC
:101A9000806206C0109228119F7D9093120B8F7D5B
:101AA0008093FD098091281180932A0265DE87EFDB
:101AB00096E0DF91CF911F910F91FF90EF90DF9013
:101AC000CF90BF90AF909F908F900C94A429DF91FE
:101AD000CF911F910F91FF90EF90DF90CF90BF902B
:101AE000AF909F908F900895CF92DF92EF92FF92E8
:101AF0009C0197FF04C022273327281B390B2B3D5D
:101B0000314044F097FD03C08E5991093DC0825683
:101B10009F4F3AC09C01BC01990F880B990B37FD70
:101B200017C00E94BC4B2DEC3CEC4CE45FE30E94E0
:101B30001B4C0E94F2486B017C0120E030E040EC3D
:101B400050E40E94E7481816BCF086E090E01CC004
:101B50000E94BC4B2DEC3CEC4CE45FE30E941B4C20
:101B60000E94F2486B017C0120E030E040EC50EC38
:101B70000E94B64B87FF06C0C701B6010E942C48E1
:101B8000CB0102C08AEF9FEFFF90EF90DF90CF90E4
:101B90009CCECF93DF939C01EB01109239111092F0
:101BA000381110923711109236111092351110928F
:101BB000341110923311109232119091570B9D7F76
:101BC0009093570B2115310511F0C9017EDE209746
:101BD00021F0D0930A0BC093090BDF91CF910895A8
:101BE0008091290B8093A909EBE8F9E0ADE0BAE018
:101BF0008C91808311968C9181838091020A8093CD
:101C00008A0908954F925F926F927F928F929F926E
:101C1000AF92BF92CF92DF92EF92FF920F931F93FA
:101C2000CF93DF93CDB7DEB728970FB6F894DEBF1A
:101C30000FBECDBF182F90910B029E7F90930B0289
:101C40000E947C1A60931E0B70931F0B8093200BD5
:101C50009093210B81E08093190B80912B0B809343
:101C60003A11412F50E0FA01BB97E135F10510F030
:101C70000C944A168827EE58FF4F8F4F0C94154747
:101C8000809109028F3F11F40C945316817F809349
:101C900009028FEF96E00E94A4291092BA091092CF
:101CA000BD091092BC098FE090E09093BF0980932A
:101CB000BE0910922B0C10922A0C0E94112C8091BC
:101CC000BB0990E00E948D2B68EE73E080E090E00D
:101CD0000E94441AE0910811F0E0CF01880F991F8B
:101CE000E80FF91FED50F04F80818F7B808386E6EF
:101CF00080930A0289E00E94CC2E8091570B81606C
:101D00008093570B0E947C1A6093580B7093590B69
:101D100080935A0B90935B0B94C784E097E00E94EA
:101D20002E286AE070E080912D0B0E94362B609186
:101D30002D0B80E30E94CE18B6C785E297E00E9483
:101D40002E2880912D0B8C34F1F480912F0B90E094
:101D5000982F88272091300B820F911D9093250298
:101D6000809324028091320B90E0982F8827209155
:101D7000330B820F911D909323028093220287E4FC
:101D800097E00E94A42980912D0B823509F08BC722
:101D900080912F0B90E0982F88272091300B820F95
:101DA000911D90932902809328028091320B90E03C
:101DB000982F88272091330B820F911D9093270233
:101DC000809326028CE497E062C782E597E00E9448
:101DD0002E2860912D0B70E0762F662780912E0BB8
:101DE000680F711D072E000C880B990B0E94BC4BCD
:101DF00020E030E048EC52E40E94C44760930E02B9
:101E000070930F0280931002909311020E94202B76
:101E10004AC78FE697E00E94A4290E94A32F43C7D8
:101E200081E997E00E942E2860E170E080912D0BFF
:101E30000E94362B80912D0B8C3441F48091300B15
:101E400090E090932E0280932D022DC7823509F0E9
:101E50002AC78091300B90E090932C0280932B0244
:101E600022C784EB97E00E94A4298FEB8093290B73
:101E700083E780930D0A82E080930E0A80912D0201
:101E800090912E0290930F0A8093100A1092110ADB
:101E900080912B0290912C029093120A8093130A46
:101EA0001092140A1092150A80E58093160A8AE0AF
:101EB000B1C68AEC97E002C08FEE97E00E942E2810
:101EC00060E170E0D4C689E098E00E942E2860911D
:101ED0002D0B70E080E090E040E10E942F288CE222
:101EE00098E00E942E288EE2E82E8BE0F82E8E01DC
:101EF0000F5F1F4F6E0146E0C40ED11C5801F70161
:101F000061917F01F80161938F0170E080E090E0C2
:101F100040E10E942F288EE298E00E942E280C15A6
:101F20001D0569F70E947428B50180912D0B0E9450
:101F3000852EB9C680E398E00E942E2860912D0B73
:101F400070E080E090E040E10E942F288CE299E070
:101F50000E942E285E01F6E0AF0EB11CAE014F5F6D
:101F60005F4F6A010EE21BE0750180912D0B90E03E
:101F700097012A193B09281739070CF5F8016191D7
:101F80008F0170E080E090E04AE00E942F288EE808
:101F900092E00E942E28F801608170E080E090E0DD
:101FA0004AE00E942F28F80131978081F701819340
:101FB0007F01F8018081F60181936F01D6CF0E94E5
:101FC000742810912D0B133008F413E00E94612E39
:101FD00081E08093D1101093D2108E818093D31022
:101FE00089818093D4108F818093D5108A818093CA
:101FF000D61088858093D7108B818093D8100E944B
:102000006E2E51C61092180B0E94542E0E94802EE4
:1020100080912D0B90E0982F882720912E0B820F16
:10202000911D9093C3098093C2098091570B8064DE
:102030008093570B0E947C1A6093580B7093590B36
:1020400080935A0B90935B0B1092C1091092C009B8
:102050002AC660912E0B70E0762F662780912F0B99
:10206000680F711D072E000C880B990B0E94BC4B4A
:1020700060939C1070939D1080939E1090939F107E
:1020800020912D0B2D3259F4DC01CB01B0588093F7
:102090009C1090939D10A0939E10B0939F10609100
:1020A000310B70E0762F66278091320B680F711D1F
:1020B000072E000C880B990B0E94BC4B609390106C
:1020C0007093911080939210909393102091300B05
:1020D0002D3259F4DC01CB01B058809390109093CD
:1020E0009110A0939210B09393106091340B70E014
:1020F000762F66278091350B680F711D072E000C17
:10210000880B990B0E94BC4B6093981070939910A8
:1021100080939A1090939B102091330B2D3259F499
:10212000DC01CB01B0588093981090939910A09344
:102130009A10B0939B101092F9091092FA0910921C
:10214000FB091092FC091092F5091092F609109201
:10215000F7091092F8092BED3FE049E450E4609153
:1021600098107091991080919A1090919B100E94F4
:102170001B4C20E030E044E353E40E94C4476B0171
:102180007C010E94C14720E030E040EC50E40E9416
:102190001B4C9B01AC0160919C1070919D10809133
:1021A0009E1090919F100E941D476093881070931D
:1021B000891080938A1090938B10C701B6010E94FA
:1021C000124920E030E040EC50E40E941B4C9B019F
:1021D000AC0160919010709191108091921090914B
:1021E00093100E941D476093841070938510809314
:1021F0008610909387108091370B80933B110E943B
:10220000E62F81E080930B0B4EC581E598E00E949C
:102210002E2881E090912D0B911101C080E08093D8
:10222000040290E00E947A2B3EC580E798E00E946D
:10223000A42961E080912D0B0E94F7010E947C1A75
:102240006093580B7093590B80935A0B90935B0BD0
:102250002AC580912D0B80932C0C90912B0A9817F6
:1022600008F421C51092220B1EC580910A02863601
:1022700009F0E7C418C50E94542E0E94802E409198
:102280002E0B50E0542F442780912F0B480F511DE7
:1022900081E08093F40980912D0B8D3219F45195D2
:1022A000419551098091310B90E0982F882720911A
:1022B000320B820F911D2091300B2D3219F4919524
:1022C00081959109052E000C660B770B4093CA0986
:1022D0005093CB096093CC097093CD09092E000C63
:1022E000AA0BBB0B8093C6099093C709A093C8099A
:1022F000B093C90982E08093570B809109028F71D6
:102300008093090288E680930A020E947C1A6093F7
:10231000580B7093590B80935A0B90935B0B0E9450
:10232000E62F809107028E7F809307028CE798E06A
:102330000E94A4296091CA097091CB098091CC09AF
:102340009091CD090E94BC4B20919C1030919D1022
:1023500040919E1050919F100E941D476B017C017F
:102360006091C6097091C7098091C8099091C90907
:102370000E94BC4B2091901030919110409192108E
:10238000509193100E941D474B015C01A7019601DB
:102390000E94C4470E94994740909810509099100D
:1023A00060909A1070909B102091F409222309F4F8
:1023B00044C020E030E044E353E40E941B4C2BED8A
:1023C0003FE049E450E40E94C447A30192010E9407
:1023D0001D470E942C488B0120E030E0A901C70175
:1023E000B6010E94B64B87FF07C00C541F4F053B38
:1023F000110514F008561140A7019601C701B60156
:102400000E941B4C6B017C01A5019401C501B40124
:102410000E941B4C9B01AC01C701B6010E941E47E4
:102420000E941C490E942C480115110509F1809158
:10243000570B84608093570B1BC0A7019601C701FF
:10244000B6010E941B4C6B017C01A5019401C501E2
:10245000B4010E941B4C9B01AC01C701B6010E9454
:102460001E470E941C4990580E942C4800E010E032
:10247000161617062CF48091570B8F7E886006C0C5
:102480006115710529F08091570B88618093570B76
:10249000CB0177FF04C088279927861B970B0397EA
:1024A0004CF4C80117FF04C088279927801B910BA3
:1024B00005973CF070930A0B6093090BC80169DB28
:1024C000C0C389E680930A021092570B85E00E94F0
:1024D0000103B7C388E898E00E94A42920912D0B3E
:1024E00088EE93E0AC01249FC001259F900D11243C
:1024F0000E945F27D8C38DE898E00E94A4298091AC
:102500002D0B8093BB09CFC3809109028F3F09F443
:10251000CAC38FEF80930602EFD76093580B709376
:10252000590B80935A0B90935B0B0E94542E0E9480
:10253000802E809109028F718093090288E6809332
:102540000A0282E08093570B80912E0B90E0982F27
:10255000882720912F0B820F911D9093140B80934D
:10256000130B20912D0B2D3239F491958195910902
:102570009093140B8093130B8091130B9091140B79
:10258000892B19F086E08093570B8091310B90E0F6
:10259000982F88272091320B820F911D9093160B54
:1025A0008093150B2091300B2D3239F49195819544
:1025B00091099093160B8093150B8091150B9091B8
:1025C000160B181619062CF48091570B8F7E886015
:1025D00006C0892B09F435C38091570B886180931D
:1025E000570B2FC389D76093580B7093590B809367
:1025F0005A0B90935B0B8FE680930D022BED3FE01F
:1026000049E450E4609198107091991080919A106B
:1026100090919B100E941B4C20E030E044E353E477
:102620000E94C4476B017C010E94C14720E030E05A
:1026300040EC50E40E941B4C9B01AC0160919C104B
:1026400070919D1080919E1090919F100E941D4747
:10265000609388107093891080938A1090938B10E8
:10266000C701B6010E94124920E030E040EC50E47E
:102670000E941B4C9B01AC016091901070919110D5
:1026800080919210909193100E941D476093841046
:102690007093851080938610909387100E94542E1B
:1026A0000E94802E64E670E080E090E0EDD62091FC
:1026B0002D0B822F8F7790E0982F882730912E0B4B
:1026C000830F911D68E671E00E9402478C0127FF8D
:1026D00005C01195019511098FEF01C081E080932C
:1026E000000A8EE998E00E942E28C8010E947A2BE9
:1026F00003D76093FD0A7093FE0A8093FF0A9093BC
:10270000000B1093FF090093FE09C8010E94F60315
:10271000882309F4C8C28091FC0A81608093FC0A76
:102720008EE998E00E942E288091FE099091FF0981
:102730000E947A2B1092FB0AB6C2DED66093580B29
:102740007093590B80935A0B90935B0B83EB98E03B
:102750000E94A4298091570B80688093570B0E9498
:10276000E502A1C28BEB98E00E94A4290E94542E9E
:1027700082EF90E10E949A1C8EED90E10E949A1CDB
:1027800010922411109225111092261110922711E7
:10279000E0910811F0E0CF01880F991FE80FF91FB1
:1027A000ED50F04F80818F7B80830E94AE290E9484
:1027B0006B290E94612E85E08093D1100E946E2EBD
:1027C00060E080E3EBD4ED988FEF97E190931502F2
:1027D0008093140260E083E010D58FEF80930902AC
:1027E00010920A021092570B1092FC0A1092120BD0
:1027F0001092FD091092220B1092010B1092020B05
:102800001092030B1092040B0E94E62F1AC284EC64
:1028100098E00E942E2860E170E080912D0B0E94CC
:10282000362B0E94542E0E94612E87E08093D11097
:102830000E946E2E80912D0B0E94C70402C25CD6AE
:102840006093580B7093590B80935A0B90935B0BCA
:102850008FEC98E00E94A4290E94542E0E94802EA2
:102860001092260C1092270C1092280C1092290C12
:102870001092220C1092230C1092240C1092250C12
:1028800061E080E38BD443E050E068E078E081E0F1
:1028900089D620E030E040E060E070E080E00E9417
:1028A000852840912D0250912E0260E082EF90E148
:1028B0000E94AD1C60912B0270912C0280E090E090
:1028C0000E94BA4B20910E0230910F0240911002EB
:1028D000509111020E941B4C0E943148AB0161E0F3
:1028E0008EED90E10E94AD1C60EA7FE080E090E018
:1028F000CBD58EED90E10E949A1C82EF90E10E9470
:102900009A1C0E94AE2968EC70E080E090E0BCD593
:102910000E941A2F0E946B2960E080E33FD4ED985B
:102920008FEF97E1909315028093140260E083E0AB
:1029300064D440914F0E5091500E6091510E7091A1
:10294000520E662777278091AE099091AF09A0912A
:10295000B009B091B109480F591F6A1F7B1F4093FE
:10296000AE095093AF096093B0097093B10980909C
:10297000530E9090540EA090550EB090560EAA246F
:10298000BB248091AA099091AB09A091AC09B091A8
:10299000AD09880E991EAA1EBB1E8092AA099092AC
:1029A000AB09A092AC09B092AD09A091430EB091D1
:1029B000440E20913B0E30913C0EC090450ED090BD
:1029C000460E80913D0E90913E0EF901EA0FFB1FDD
:1029D000F695E7952A1B3B0B369527953695279557
:1029E00040904F0E5090500E6090510E7090520ECD
:1029F00082014090530E5090540E6090550E70908E
:102A0000560E7201DF01A21BB30BB0932502A093F7
:102A100024022E0F3F1F30932302209322029C0199
:102A20002C0D3D1DF901F695E7958C199D0996959C
:102A30008795969587959F01281B390B309329021E
:102A4000209328028E0F9F1F9093270280932602C7
:102A5000CB01BA01681979098A099B090E94532B95
:102A60000415150509F470C089ED98E00E942E2820
:102A70008091AE099091AF09A091B009B091B109D0
:102A80004091AA095091AB096091AC097091AD09D0
:102A9000841B950BA60BB70B181619061A061B06F6
:102AA000ECF440165106D0F482EE98E00E94A4297E
:102AB0002DEC3CEC4CEC5DE360910E0270910F024A
:102AC00080911002909111020E941E4760930E02A5
:102AD00070930F0280931002909311028091AA09C3
:102AE0009091AB09A091AC09B091AD094091AE09AC
:102AF0005091AF096091B0097091B109841B950B99
:102B0000A60BB70B181619061A061B06ECF40E15C1
:102B10001F05D0F48CE298E00E94A4292DEC3CEC37
:102B20004CEC5DE360910E0270910F0280911002F7
:102B3000909111020E941D4760930E0270930F0244
:102B400080931002909311028FEB8093290B81E701
:102B500080930D0A87E080930E0A80912202909163
:102B6000230290930F0A8093100A1092110A809109
:102B70002402909125029093120A8093130A1092D6
:102B8000140A80912602909127029093150A80934F
:102B9000160A1092170A80912802909129029093A8
:102BA000180A8093190A10921A0A80912D029091A6
:102BB0002E0290931B0A80931C0A10921D0A80918A
:102BC0002B0290912C0290931E0A80931F0A109260
:102BD000200A20E030E048EC52E460910E0270914F
:102BE0000F0280911002909111020E941B4C6B0108
:102BF0007C0120E030E040E85BE30E941B4C0E9437
:102C000031486093210AC701B6010E9431486093A0
:102C1000220A86E18093020A46C06ED46093580B64
:102C20007093590B80935A0B90935B0B84EE98E052
:102C30000E94A429109209028FEF0E94C7040E94EB
:102C4000542E0E94E62F2FC057D46093580B7093D8
:102C5000590B80935A0B90935B0B80912D0B0E9424
:102C6000CC2E8EEE98E00E942E286AE070E08091D3
:102C70002D0B17C087E0809306028AEF98E007C00B
:102C800082E0809305021092170B89E099E00E9480
:102C9000A42909C08DE199E00E942E2860E170E02E
:102CA000812F0E94362B28960FB6F894DEBF0FBEF8
:102CB000CDBFDF91CF911F910F91FF90EF90DF90EB
:102CC000CF90BF90AF909F908F907F906F905F90CC
:102CD0004F900895CF92DF92EF92FF920F931F9340
:102CE000CF93DF936C017A018B01C0E0D0E0CE1569
:102CF000DF0589F0D8016D918D01D601ED91FC9130
:102D00000190F081E02DC6011995892B11F47E0107
:102D100002C02196ECCFC701DF91CF911F910F9197
:102D2000FF90EF90DF90CF900895FC01A089B189CA
:102D30008C91A689B78982FD0FC09C91818D8F5F90
:102D40008F73228D821749F0218DDF01A20FB11DF3
:102D50005D969C93818F08958C910895FC01918DCF
:102D6000828D981761F0828DDF01A80FB11D5D96ED
:102D70008C91928D9F5F9F73928F90E008958FEF5B
:102D80009FEF0895FC01918D828D981731F0828D0F
:102D9000E80FF11D858D90E008958FEF9FEF089566
:102DA000FC01918D228D892F90E0805C9F4F821BCA
:102DB00091098F73992708958DE89EE0F1DF21E056
:102DC000892B09F420E0822F08958AE29FE0E8DF52
:102DD00021E0892B09F420E0822F0895FC01848DE5
:102DE000DF01A80FB11DA35ABF4F2C91848D90E035
:102DF00001968F739927848FA689B7892C93A08910
:102E0000B1898C9180648C93938D848D981306C0C6
:102E10000288F389E02D80818F7D80830895EF9271
:102E2000FF920F931F93CF93DF93EC0181E0888F84
:102E30009B8D8C8D981305C0E889F989808185FD6B
:102E400023C0F62E0B8D10E00F5F1F4F0F7311275D
:102E5000E02E8C8DE8120BC00FB607FCFACFE88984
:102E6000F989808185FFF5CFCE01B8DFF2CF8B8D58
:102E7000FE01E80FF11DE35AFF4FF0820B8FEA8944
:102E8000FB898081806207C0EE89FF896083E889C1
:102E9000F98980818064808381E090E0DF91CF9127
:102EA0001F910F91FF90EF900895CF93DF93EC0166
:102EB000888D8823C1F0EA89FB89808185FD05C062
:102EC000A889B9898C9186FD0EC00FB607FCF5CF95
:102ED000808185FFF2CFA889B9898C9185FFEDCFDC
:102EE000CE017CDFE8CFDF91CF91089580E090E0C4
:102EF000892B19F06ADF811120C080E090E0892BD6
:102F000041F080E090E0892B21F00E9400008111C7
:102F100017C080E090E0892B19F04EDF811113C0BB
:102F200080E090E0892BA1F080E090E0892B81F097
:102F30000E94000081110AC008950E940000DDCFA8
:102F40000E940000E6CF0E940000EACF0C9400002F
:102F5000089590E0FC013197E231F10508F04EC090
:102F60008827ED53FF4F8F4F0C94154780918000B9
:102F70008F7703C0809180008F7D809380000895BB
:102F800080918000877FF9CF84B58F7702C084B5A8
:102F90008F7D84BD08958091B0008F7703C08091AC
:102FA000B0008F7D8093B0000895809190008F775E
:102FB00007C0809190008F7D03C080919000877F33
:102FC0008093900008958091A0008F7707C0809132
:102FD000A0008F7D03C08091A000877F8093A00018
:102FE0000895809120018F7707C0809120018F7D07
:102FF00003C080912001877F809320010895089568
:103000000E94A24B1F920F920FB60F9211240BB683
:103010000F922F933F934F935F936F937F938F9371
:103020009F93AF93BF93EF93FF938DE89EE0D6DE1F
:10303000FF91EF91BF91AF919F918F917F916F9190
:103040005F914F913F912F910F900BBE0F900FBE4C
:103050000F901F9018951F920F920FB60F92112488
:103060000BB60F922F933F934F935F936F937F9382
:103070008F939F93AF93BF93EF93FF938DE89EE061
:1030800054DEFF91EF91BF91AF919F918F917F910E
:103090006F915F914F913F912F910F900BBE0F90C9
:1030A0000FBE0F901F9018951F920F920FB60F92A0
:1030B00011240BB60F922F933F934F935F936F930F
:1030C0007F938F939F93AF93BF93EF93FF938AE286
:1030D0009FE084DEFF91EF91BF91AF919F918F911F
:1030E0007F916F915F914F913F912F910F900BBE08
:1030F0000F900FBE0F901F9018951F920F920FB652
:103100000F9211240BB60F922F933F934F935F931F
:103110006F937F938F939F93AF93BF93EF93FF939F
:103120008AE29FE002DEFF91EF91BF91AF919F9104
:103130008F917F916F915F914F913F912F910F9060
:103140000BBE0F900FBE0F901F901895CF93DF937B
:10315000282F30E0F901E05CFC4F8491F901E65042
:10316000FD4FD491F901EC54FD4FC491CC2389F06B
:103170008111EFDEEC2FF0E0EE0FFF1FE656FD4F62
:10318000A591B491EC91ED2381E090E021F480E0F1
:1031900002C080E090E0DF91CF9108951F93CF931C
:1031A000DF93282F30E0F901E05CFC4F8491F901B6
:1031B000E650FD4FD491F901EC54FD4FC491CC235E
:1031C000C1F0162F8111C5DEEC2FF0E0EE0FFF1FCE
:1031D000E058FD4FA591B4918FB7F894111105C037
:1031E0009C91ED2FE095E92302C0EC91ED2BEC933F
:1031F0008FBFDF91CF911F910895CF93DF9390E020
:10320000FC01E650FD4F2491FC01EC54FD4F8491EC
:10321000882361F190E0880F991FFC01EA59FD4F66
:10322000C591D491FC01E058FD4FA591B491611175
:1032300009C09FB7F8948881209582238883EC91F8
:103240002E230BC0623061F49FB7F8943881822F2F
:10325000809583238883EC912E2B2C939FBF06C0EF
:103260008FB7F894E8812E2B28838FBFDF91CF9101
:1032700008951F93CF93DF93182FEB0161E0BDDF1B
:10328000209711F460E004C0CF3FD10531F461E034
:10329000812FDF91CF911F9181CFE12FF0E0E05C92
:1032A000FC4FE4914E2F50E0FA013197E231F105E5
:1032B00008F09DC08827EB52FF4F8F4F0C941547A5
:1032C00084B5806884BDC7BD97C084B5806284BD65
:1032D000C8BD92C080918000806880938000D093A8
:1032E0008900C093880088C08091800080628093AC
:1032F0008000D0938B00C0938A007EC080918000B4
:10330000886080938000D0938D00C0938C0074C03F
:103310008091B00080688093B000C093B3006CC00F
:103320008091B00080628093B000C093B40064C00C
:1033300080919000806880939000D0939900C09312
:1033400098005AC080919000806280939000D09342
:103350009B00C0939A0050C0809190008860809339
:103360009000D0939D00C0939C0046C08091A00027
:1033700080688093A0008091A0008F7B8093A00044
:10338000D093A900C093A80037C08091A0008062AC
:103390008093A000D093AB00C093AA002DC0809171
:1033A000A00088608093A000D093AD00C093AC00D3
:1033B00023C080912001806880932001D09329014F
:1033C000C093280119C08091200180628093200160
:1033D000D0932B01C0932A010FC0809120018860F7
:1033E00080932001D0932D01C0932C0105C0C038DB
:1033F000D1050CF04CCF46CFDF91CF911F910895AE
:10340000863308F0865390917B00282F2870977F91
:10341000922B90937B008770806480937C008091D6
:103420007A00806480937A0080917A0086FDFCCFD8
:10343000809178002091790090E0922B08953FB719
:10344000F8948091750C9091760CA091770CB091C6
:10345000780C26B5A89B05C02F3F19F00196A11D39
:10346000B11D3FBFBA2FA92F982F8827820F911D1A
:10347000A11DB11DBC01CD0142E0660F771F881F61
:10348000991F4A95D1F708958F929F92AF92BF925C
:10349000CF92DF92EF92FF926B017C01D0DF4B0164
:1034A0005C01C114D104E104F104E9F0C8DFDC01DE
:1034B000CB0188199909AA09BB09883E9340A10547
:1034C000B10578F321E0C21AD108E108F10888EECD
:1034D000880E83E0981EA11CB11CC114D104E10424
:1034E000F10421F7DECFFF90EF90DF90CF90BF90F7
:1034F000AF909F908F9008952FB7F8946091710CC2
:103500007091720C8091730C9091740C2FBF089580
:103510001F920F920FB60F9211242F933F938F9308
:103520009F93AF93BF938091710C9091720CA09177
:10353000730CB091740C3091700C23E0230F2D3775
:1035400020F40196A11DB11D05C026E8230F0296A7
:10355000A11DB11D2093700C8093710C9093720C7F
:10356000A093730CB093740C8091750C9091760CB1
:10357000A091770CB091780C0196A11DB11D80939C
:10358000750C9093760CA093770CB093780CBF9148
:10359000AF919F918F913F912F910F900FBE0F9000
:1035A0001F901895E82FF0E0EE0FFF1FEE5EFD4F25
:1035B0007183608390E08830910508F062C0FC015F
:1035C0008827E951FF4F8F4F0C9415478091690070
:1035D0008C7F482B40936900E89A08958091690098
:1035E000440F551F440F551F837F482B409369009C
:1035F000E99A08958091690074E0440F551F7A9507
:10360000E1F78F7C482B40936900EA9A08958091F6
:10361000690066E0440F551F6A95E1F78F73482BE8
:1036200040936900EB9A089580916A008C7F482B43
:1036300040936A00EC9A089580916A00440F551FE8
:10364000440F551F837F482B40936A00ED9A0895DD
:1036500080916A0024E0440F551F2A95E1F78F7C82
:10366000482B40936A00EE9A089580916A0096E094
:10367000440F551F9A95E1F78F73482B40936A00CA
:10368000EF9A08951F920F920FB60F9211240BB666
:103690000F922F933F934F935F936F937F938F93EB
:1036A0009F93AF93BF93EF93FF93E0912002F0912C
:1036B00021021995FF91EF91BF91AF919F918F9149
:1036C0007F916F915F914F913F912F910F900BBE22
:1036D0000F900FBE0F901F9018951F920F920FB66C
:1036E0000F9211240BB60F922F933F934F935F933A
:1036F0006F937F938F939F93AF93BF93EF93FF93BA
:10370000E0911E02F0911F021995FF91EF91BF9178
:10371000AF919F918F917F916F915F914F913F9169
:103720002F910F900BBE0F900FBE0F901F9018950A
:103730001F920F920FB60F9211240BB60F922F9378
:103740003F934F935F936F937F938F939F93AF9329
:10375000BF93EF93FF93E0911402F0911502199536
:10376000FF91EF91BF91AF919F918F917F916F9159
:103770005F914F913F912F910F900BBE0F900FBE15
:103780000F901F9018951F920F920FB60F92112451
:103790000BB60F922F933F934F935F936F937F934B
:1037A0008F939F93AF93BF93EF93FF93E091120298
:1037B000F09113021995FF91EF91BF91AF919F91F5
:1037C0008F917F916F915F914F913F912F910F90CA
:1037D0000BBE0F900FBE0F901F9018951F920F9267
:1037E0000FB60F9211240BB60F922F933F934F9366
:1037F0005F936F937F938F939F93AF93BF93EF9359
:10380000FF93E0911C02F0911D021995FF91EF9139
:10381000BF91AF919F918F917F916F915F914F91E8
:103820003F912F910F900BBE0F900FBE0F901F90E6
:1038300018951F920F920FB60F9211240BB60F928C
:103840002F933F934F935F936F937F938F939F93A8
:10385000AF93BF93EF93FF93E0911A02F0911B0295
:103860001995FF91EF91BF91AF919F918F917F91AA
:103870006F915F914F913F912F910F900BBE0F90E1
:103880000FBE0F901F9018951F920F920FB60F92B8
:1038900011240BB60F922F933F934F935F936F9327
:1038A0007F938F939F93AF93BF93EF93FF93E09199
:1038B0001802F09119021995FF91EF91BF91AF9104
:1038C0009F918F917F916F915F914F913F912F9138
:1038D0000F900BBE0F900FBE0F901F9018951F9268
:1038E0000F920FB60F9211240BB60F922F933F93A6
:1038F0004F935F936F937F938F939F93AF93BF93F8
:10390000EF93FF93E0911602F09117021995FF9142
:10391000EF91BF91AF919F918F917F916F915F9147
:103920004F913F912F910F900BBE0F900FBE0F90B4
:103930001F901895CF93DF93EC0160E088812EDC17
:1039400019861886188A198A1A8A1B8A1C861D8667
:103950001E861F86DF91CF910895EF92FF920F93FD
:103960001F93CF93DF931F921F92CDB7DEB78C01C9
:10397000F62EFC01828149835A8310DCEE24E39405
:103980006F2D6E25F801848109DCE09221114981B7
:10399000642F5A81752F6F3F710519F010F06FEF8A
:1039A00070E0F80180810F900F90DF91CF911F910F
:1039B0000F91FF90EF905DCC1F920F920FB60F9278
:1039C00011240BB60F922F933F934F935F936F93F6
:1039D0007F938F939F93AF93BF93EF93FF93E09168
:1039E0006E0CF0916F0C1995FF91EF91BF91AF9113
:1039F0009F918F917F916F915F914F913F912F9107
:103A00000F900BBE0F900FBE0F901F901895DC010A
:103A100070E0FB01E650FD4FE4911496EC9314978F
:103A200050E0FA01E650FD4FE4911596EC9315979E
:103A30006C547D4FFB018491E82FF0E0EE0FFF1FE7
:103A4000E058FD4F8591949117969C938E9316970D
:103A5000FA01EC54FD4F449150E0440F551F465677
:103A60005D4FFA018591949119969C938E931897C6
:103A7000FB016491E62FF0E0EE0FFF1FEA59FD4FC6
:103A8000859194911B969C938E931A972F5F3F4F2D
:103A900049E3429FC001439F900D11248E38FFE6F9
:103AA0009F0710F08DE89FE61D969C938E931C97C0
:103AB00008951F920F920FB60F9211240BB60F921A
:103AC0002F923F924F925F926F927F928F929F922E
:103AD000AF92BF92CF92DF92EF92FF920F931F931C
:103AE0002F933F934F935F936F937F938F939F9306
:103AF000AF93BF93EF93FF93CF93DF93CDB7DEB731
:103B00002997DEBFCDBF8CE49EEF90932501809373
:103B1000240180918C0E811105C080918B0E811142
:103B2000B1C030C227EE3FE03B832A835FEEE52E33
:103B30005FE0F52EC12CD12C00E010E0AA81BB8102
:103B40008C911296BB83AA835BDC4C01C801880F61
:103B5000991FFC01ED5BF14F2081318182169306A4
:103B600010F491828082FC01E55CF14F80819181AB
:103B70008815990510F491828082BEDCF801EE0F61
:103B8000FF1FEE0FFF1FF987E887E25AF34F4080CF
:103B9000518062807380AB01BC01441955096609EC
:103BA00077098091D40F9091D50F092E000CAA0BA4
:103BB000BB0B84179507A607B70708F056C0F60198
:103BC000E152F04F808191818815990564F4F801E4
:103BD000E95CF14F8081882311F021E02983808105
:103BE000811101C01982F601E952F04F8081918163
:103BF000A801455B514F5A01881699065CF4F801FB
:103C0000E95CF14F8081811102C051E059838081CC
:103C1000811108C08981882329F0D5018C918111F7
:103C200074C006C0F5018081882309F4A1C11982FE
:103C3000E885F985E15BF14F80809180A280B380B7
:103C4000F601E158F14F80819181AC0160E070E0B4
:103C500084169506A606B70640F0892B31F0F801C8
:103C6000E957F14F8081811186C10F5F1F4FF2E04C
:103C7000CF0ED11C2FEFE21AF20A0430110509F021
:103C80005DCF4BCF8091221190912311019690939B
:103C900023118093221120912211309123118091C0
:103CA0007F0E9091800E2817390708F46BC185E0CC
:103CB00080933D0CF89410922001109221011092F3
:103CC000250110922401809121018093210180918E
:103CD0002101809321018091210180932101809114
:103CE000730080937300789410928B0E8EE299E0AB
:103CF0000E942E2880912211909123110E947728F2
:103D000061E08091D60F4ADA3DC180918C0E882304
:103D100009F48ECFF1DBE885F985E25AF34F608331
:103D2000718382839383F5011082E885F985E15BD5
:103D3000F14F6081718182819381D7012C91022E94
:103D4000000C330B440B550B0E94034D672B682B63
:103D5000692B49F4D1DBE885F985E25BF34F608399
:103D6000718382839383E885F985E15BF14F6081FC
:103D7000718182819381F7012081220F330B032E01
:103D8000000C440B550B0E94034D672B682B692BCD
:103D900049F4B2DBE885F985E25CF34F6083718317
:103DA00082839383E885F985E15BF14F60817181BE
:103DB00082819381D701BC902B2D0B2C000C330BEF
:103DC000440B550B0E94034D2B2DBB0C330B215084
:103DD00031094901330FAA08BB08681579058A051E
:103DE0009B0509F049C088DB4B015C01E885F9853A
:103DF000E25BF34F1F0120813181428153812C838B
:103E00003D834E835F83F7016081062E000C770BA4
:103E10009B012150310948EE53E0249FC001259FAA
:103E2000900D349F900D11240E940247072E000C24
:103E3000880B990B0E94BC4B2B013C018C819D810E
:103E4000881A990AB40180E090E00E94BA4B9B0165
:103E5000AC01C301B2010E94C447E885F985E1596C
:103E6000F14F608371838283938346DBD1016D932D
:103E70007D938D939C931397E885F985E15BF14FD2
:103E80006081718182819381F701A080AA0CBB08B7
:103E900095010B2C000C440B550B0E94034DF1E0D7
:103EA000AF1AB1084501BB0CAA08BB086815790513
:103EB0008A059B0509F04CC01FDB4B015C0128857E
:103EC0003985225C334F1901D9012D913D914D91D6
:103ED0005C912C833D834E835F83F7012081022E0A
:103EE000000C330B40EA5FE0249FC001259F900D3A
:103EF000349F900D1124805D9740B901660F771FA4
:103F00000E940247072E000C880B990B0E94BC4BA5
:103F10002B013C018C819D81881A990AB40180E0B3
:103F200090E00E94BA4B9B01AC01C301B2010E9418
:103F3000C447E885F985E15AF14F60837183828334
:103F40009383DADAD1016D937D938D939C931397CC
:103F5000E885F985E15BF14F80819181A281B38190
:103F60000196A11DB11D80839183A283B38360CE8E
:103F700081E080835CCE00933D0C61E08091D60FA0
:103F80000DD973CE29960FB6F894DEBF0FBECDBF04
:103F9000DF91CF91FF91EF91BF91AF919F918F9161
:103FA0007F916F915F914F913F912F911F910F9151
:103FB000FF90EF90DF90CF90BF90AF909F908F9049
:103FC0007F906F905F904F903F902F900F900BBE1F
:103FD0000F900FBE0F901F9018950F931F93CF93C4
:103FE000C82F84E0C89F80011124F801E95EF14FD9
:103FF00060817181828193812AE330E040E050E06A
:104000000E94034DF801EE51F64F80819181A2810B
:10401000B381281739074A075B07C0F48091D30F93
:104020008823A1F0C093D60961E0E7D861E08091D0
:10403000D30FB4D861E070E080E090E025DA60E072
:104040008091D30FCF911F910F91A8C8CF911F914D
:104050000F9108950F931F938091320E77D8019797
:1040600069F4EDD96093390C70933A0C80933B0C52
:1040700090933C0C83E01F910F91AFCFE0D900915A
:10408000390C10913A0C20913B0C30913C0CDC0126
:10409000CB01801B910BA20BB30B8093230E90934B
:1040A000240EA093250EB093260E1F910F91089514
:1040B0000F931F938091310E49D8019769F4BFD9AE
:1040C0006093350C7093360C8093370C9093380CBA
:1040D00082E01F910F9181CFB2D90091350C1091E0
:1040E000360C2091370C3091380CDC01CB01801B51
:1040F000910BA20BB30B80931F0E9093200EA093F5
:10410000210EB093220E1F910F9108951F920F92CE
:104110000FB60F9211240BB60F92AF92BF92CF92AF
:10412000DF92EF92FF920F931F932F933F934F9342
:104130005F936F937F938F939F93AF93BF93CF932F
:10414000DF93EF93FF938091E0099091E1099093C1
:10415000A5008093A4008FE2E82E8EE0F82ECBE23B
:10416000DEE000E010E093E0C92ED12C27E3A22E80
:10417000B12CF70181917F018823A1F060E0888153
:104180000DD8C6010197F1F761E0888107D8C50114
:104190000197F1F761E0888101D881E0F801E95DDC
:1041A000F14F80830F5F1F4F21960430110509F7EF
:1041B000FF91EF91DF91CF91BF91AF919F918F913F
:1041C0007F916F915F914F913F912F911F910F912F
:1041D000FF90EF90DF90CF90BF90AF900F900BBE0D
:1041E0000F900FBE0F901F90189585ED8093BC0027
:1041F0008091BC0084FDFCCF1092ED0D089540919C
:10420000C90D262F30E0240F311D21323105DCF499
:104210002091ED0D2430C9F4FC0180E090E0861778
:1042200058F43091C90D2191DC01A755B24FA30F6D
:10423000B11D2C930196F3CF8091C90D680F609347
:10424000C90D80E0089581E0089582E00895E0912D
:104250008409F0918509309729F01092870910920E
:10426000860919940895CF93DF93AC01E0918209F8
:10427000F09183093097F1F0909189098091880934
:104280009817C0F090E0292F30E02617370754F434
:10429000D901A757B24FEA01C20FD31F88818C936F
:1042A0009F5FF1CF1092890960938809CB01DF915C
:1042B000CF911994DF91CF9108950895E0918909E4
:1042C00080918809E81730F4F0E0E757F24F8081D9
:1042D00090E008958FEF9FEF089590918909809164
:1042E0008809981750F4E92FF0E0E757F24F208142
:1042F00030E09F5F9093890902C02FEF3FEFC90123
:1043000008958091880990E020918909821B910984
:104310000895CF93DF931F921F92CDB7DEB7CB01E5
:10432000642F49835A836BDF4981842F5A81952FEB
:104330000F900F90DF91CF910895CF93DF931F924D
:10434000CDB7DEB7698361E0CE01019658DF81E029
:1043500090E00F90DF91CF9108950F931F9380917C
:10436000300E0E94A618019769F469D86093310C49
:104370007093320C8093330C9093340C81E01F9136
:104380000F912BCE5CD80091310C1091320C209102
:10439000330C3091340CDC01CB01801B910BA20B50
:1043A000B30B80931B0E90931C0EA0931D0EB09325
:1043B0001E0E1F910F9108950F931F9380912F0E42
:1043C0000E94A618019761F43AD860932D0C70935F
:1043D0002E0C80932F0C9093300C1F910F91089509
:1043E0002ED800912D0C10912E0C20912F0C309175
:1043F000300CDC01CB01801B910BA20BB30B809323
:10440000170E9093180EA093190EB0931A0E80E019
:104410001F910F91E2CDCF92DF92EF92FF920F9317
:104420001F93CF93DF936C018B017A01EC01CD5781
:10443000D24F888187FF04C0FB011182108224C003
:104440008CE08C9D90018D9D300D11248881A901F7
:10445000480F511D87FD5A958091831090E04817B1
:10446000590794F48881A901480F511D87FD5A9579
:10447000CA01FA01EE0FFF1F8E0F9F1FFC01ED50C6
:10448000F04F808186FD19C088818F5F88838CE022
:104490008C9D90018D9D300D11248881A901480FBC
:1044A000511D87FD5A958091831090E04817590758
:1044B000BCF488818C3044F113C08881280F311DF1
:1044C00087FD3A95F901EE0FFF1F2E0F3F1FF901EF
:1044D000ED50F04F808160E08F730E94CE18D4CFF2
:1044E000F80180819181049680349C4918F480E41D
:1044F0009CE904C0F801808191810496F7019183C1
:1045000080838FEF888345C0F80140815181888185
:10451000B901680F711D87FD7A95CB01FB01EE0F84
:10452000FF1F8E0F9F1FFC01ED50F04F8181928184
:10453000840F951FF701918380838881A901480F1B
:10454000511D87FD5A95CA01FA01EE0FFF1F8E0F0C
:104550009F1FFC01ED50F04F808186FF1AC08881BB
:10456000280F311D87FD3A95F901EE0FFF1F2E0F21
:104570003F1FF901ED50F04F808161E08F73DF91B3
:10458000CF911F910F91FF90EF90DF90CF900C94FF
:10459000CE18DF91CF911F910F91FF90EF90DF9098
:1045A000CF9008954F925F926F927F928F929F92D9
:1045B000AF92BF92CF92DF92EF92FF920F931F9331
:1045C000CF93DF93CDB7DEB72F970FB6F894DEBF4A
:1045D0000FBECDBF03E81CE0909188098091890946
:1045E000981739F087EC9FE078DED8018D938D0124
:1045F000F3CF0091840C1091850C60E088E20E945A
:10460000CE18033041F0083009F417C2011118C266
:104610001093010A15C286E89CE0FE013196BF01A5
:10462000212F30E0AB014E1B5F0B421753073CF4C8
:10463000DC014C91DB014D93BD010296F3CF1330A9
:1046400009F440C018F4123071F0FAC1143009F4C2
:1046500088C0163009F0F4C1A9E3B2E09E01295FD9
:104660003F4F80E0CAC18981843119F08C32A9F0B2
:10467000E7C18091170B813011F41093170B8091D3
:10468000870C90E0982F88272091890C820F911D2C
:104690009093C5098093C409D3C1809106028823F1
:1046A00019F08150809306028091870C90E0982F3A
:1046B00088272091890C820F911D9093040A809382
:1046C000030ABEC189818630A9F0893009F049C04A
:1046D0008091890C90E0982F882720918B0C820F75
:1046E000911D68E671E00E9402479093820C8093CE
:1046F000810C37C08A818730A1F58B81883089F59C
:104700002091890C30E0322F222780918B0C280FCA
:10471000311D8091870C813019F431952195310933
:104720008091F90A90E0019664E670E00E940247E9
:104730008093F90A68E671E0FB01E21BF30B9F012D
:10474000FC01EE0FFF1FEF5CF54FC9010E9402470D
:10475000918380838091FA0A813019F482E08093FA
:10476000FA0A89818232B9F0863209F4A7C086310B
:1047700009F066C18091870C8093550B8091890C5C
:104780008093B40980918B0C8093B30980918D0C38
:104790008093B20955C16091030A7091040A072EF3
:1047A000000C880B990B0E94BC4B2BED3FE049E4B9
:1047B00050E40E941B4C20E030E044E353E40E94AC
:1047C000C4476B017C010E94C1474B015C01809191
:1047D000870C90E0982F88272091890C822BBC01B0
:1047E000990F880B990B0E94BC4B2BED3FE049E4DD
:1047F00050E40E941B4C27ED33EA40ED50E40E9448
:104800001B4C20E030E040E05EE30E941B4C2B019B
:104810003C0120E030E040EC50E4C501B4010E94CE
:104820001B4C9B01AC01C301B2010E941E470E94B8
:10483000F2480E942C4870930C0A60930B0AC7013F
:10484000B6010E9412496B017C0180918B0C90E0B3
:10485000982F882720918D0C822BBC01990F880BF3
:10486000990B0E94BC4B2BED3FE049E450E40E94C1
:104870001B4C27ED33EA40ED50E40E941B4C20E036
:1048800030E040E05EE30E941B4C4B015C0120E005
:1048900030E040EC50E4C701B6010E941B4C9B0184
:1048A000AC01C501B4010E941E470E94F2480E945B
:1048B0002C4870930A0A6093090A92C06091030A17
:1048C0007091040A072E000C880B990B0E94BC4BB8
:1048D0002BED3FE049E450E40E941B4C20E030E027
:1048E00044E353E40E94C4476B017C010E94C1472A
:1048F0004B015C018091870C90E0982F88272091D4
:10490000890C822BBC01990F880B990B0E94BC4B20
:104910002BED3FE049E450E40E941B4C27ED33EAC5
:1049200040ED50E40E941B4C20E030E040E05EE3AC
:104930000E941B4C2B013C0120E030E040EC50E495
:10494000C501B4010E941B4C9B01AC01C301B20123
:104950000E941E470E94F2480E942C487093080A49
:104960006093070AC701B6010E9412496B017C01DE
:1049700080918B0C90E0982F882720918D0C822BB2
:10498000BC01990F880B990B0E94BC4B2BED3FE0AB
:1049900049E450E40E941B4C27ED33EA40ED50E41B
:1049A0000E941B4C20E030E040E05EE30E941B4C84
:1049B0004B015C0120E030E040EC50E4C701B6015F
:1049C0000E941B4C9B01AC01C501B4010E941E4713
:1049D0000E94F2480E942C487093060A6093050AD0
:1049E00080910602882361F181508093060228C0DD
:1049F00041919D91491301C081E0E217F307C1F78E
:104A00008823F1F08DE399E029D38091890C90E01F
:104A1000982F882720918B0C820F911D79D688E4DE
:104A200099E01CD380918D0C90E0982F88272091DD
:104A30008F0C820F911D5ED603C081E0809300022F
:104A400081E08093560B2F960FB6F894DEBF0FBE11
:104A5000CDBFDF91CF911F910F91FF90EF90DF902D
:104A6000CF90BF90AF909F908F907F906F905F900E
:104A70004F9008958091830C883099F48091850C33
:104A80008B3078F44AE050E060ED70E187EC9FE015
:104A900040DC61E070E080E090E00E94441A0C94F9
:104AA000612E08951F920F920FB60F9211240BB62C
:104AB0000F922F933F934F935F936F937F938F93B7
:104AC0009F93AF93BF93EF93FF938091B900887F3B
:104AD000803609F49CC068F5883209F45BC090F414
:104AE000803109F454C038F4882309F4F6C08830C2
:104AF00009F44DC0F5C0883109F44CC0803209F486
:104B00005DC0EEC0803409F468C048F4803309F415
:104B100055C0883309F0E4C08093EC0DD8C08035CF
:104B200009F44FC0883509F45DC0883409F0D8C055
:104B3000D6C0883909F4C7C0A8F4883709F467C01B
:104B400038F4883609F463C0803709F460C0C8C0FF
:104B5000883809F4B8C0803909F45FC0803809F09A
:104B6000BFC05BC0803B09F486C038F4803A09F4CA
:104B700066C0883A09F47FC0B3C0803C09F4A7C07E
:104B8000883C09F4A4C0883B09F48AC0A9C080917C
:104B9000120E10C09091110E8091100E981770F5A2
:104BA000E091110E81E08E0F8093110EF0E0E05144
:104BB000F24F80818093BB0085EC86C08093EC0D22
:104BC0008EC0E091110E81E08E0F8093110E8091C6
:104BD000BB00F0E0E051F24F80839091110E809184
:104BE000100E6EC0E091110E81E08E0F8093110EB9
:104BF0008091BB00F0E0E051F24F80838091EF0D97
:104C000081116DC081E08093EE0D84EA61C083E084
:104C10008093ED0D1092EB0DCFCF8091EB0D803294
:104C200008F051C0E091EB0D81E08E0F8093EB0D09
:104C30008091BB00F0E0E553F24F8083BDCF85EC5F
:104C40008093BC001092ED0D8091EB0D803230F41A
:104C5000E091EB0DF0E0E553F24F10826091EB0D27
:104C600070E0E0917E09F0917F098BEC9DE0199551
:104C70001092EB0D35C084E08093ED0D1092CA0DBB
:104C80001092C90DE0918009F091810919958091E8
:104C9000C90D811105C081E08093C90D1092A90D45
:104CA000E091CA0D81E08E0F8093CA0DF0E0E755C8
:104CB000F24F80818093BB009091CA0D8091C90D05
:104CC000981708F479CF85E88093BC0009C085EC7B
:104CD0008093BC001092ED0D03C01092EC0D85DAAC
:104CE000FF91EF91BF91AF919F918F917F916F91C4
:104CF0005F914F913F912F910F900BBE0F900FBE80
:104D00000F901F9018951092ED0D81E08093EF0D9C
:104D10001092EE0D61E084E10E94CE1861E085E121
:104D20000E94CE18E9EBF0E080818E7F8083808145
:104D30008D7F808388E48093B80085E48093BC00F5
:104D400008951F920F920FB60F9211240F900FBE6D
:104D50000F901F9018951F920F920FB60F9211246B
:104D60000BB60F922F933F934F935F936F937F9365
:104D70008F939F93AF93BF93EF93FF9348E251E0DC
:104D800064E271E080E090E046DBFF91EF91BF913B
:104D9000AF919F918F917F916F915F914F913F91D3
:104DA0002F910F900BBE0F900FBE0F901F90189574
:104DB0001F920F920FB60F9211240BB60F922F93E2
:104DC0003F934F935F936F937F938F939F93AF9393
:104DD000BF93EF93FF9348EA50E064EA70E083E00A
:104DE00090E019DBFF91EF91BF91AF919F918F916F
:104DF0007F916F915F914F913F912F910F900BBEDB
:104E00000F900FBE0F901F9018951F920F920FB624
:104E10000F9211240BB60F922F933F934F935F93F2
:104E20006F937F938F939F93AF93BF93EF93FF9372
:104E300048E950E064E970E082E090E0ECDAFF914C
:104E4000EF91BF91AF919F918F917F916F915F9102
:104E50004F913F912F910F900BBE0F900FBE0F906F
:104E60001F9018951F920F920FB60F9211240BB638
:104E70000F922F933F934F935F936F937F938F93F3
:104E80009F93AF93BF93EF93FF9348E850E064E89C
:104E900070E081E090E0BFDAFF91EF91BF91AF91B8
:104EA0009F918F917F916F915F914F913F912F9142
:104EB0000F900BBE0F900FBE0F901F901895CF93C1
:104EC000DF93EC010E947C1ADC01CB018C0F9D1F4B
:104ED000A11DB11D8093010B9093020BA093030BB6
:104EE000B093040B61E081E3DF91CF910C94CE1875
:104EF0004F925F926F927F928F929F92AF92BF92EA
:104F0000CF92DF92EF92FF920F931F93CF93DF9395
:104F100000D000D0CDB7DEB70E947C1A60932C0A77
:104F200070932D0A80932E0A90932F0A40914F0E72
:104F30005091500E6091510E7091520E8091530E0F
:104F40009091540EA091550EB091560E4A015B01FE
:104F5000AA24BB2400917D0C10917E0C20917F0C23
:104F60003091800C6C017D01EE24FF240815190599
:104F70002A053B0568F04090790C50907A0C6090BF
:104F80007B0C70907C0C4C145D046E047F0490F5D7
:104F9000EBE1EC83ECE1ED83EDE1EE83E1E0E9832D
:104FA000401B510B57FF03C05195419551094A834E
:104FB0002091790C30917A0C821B930B97FF03C0E0
:104FC0009195819591098B83BE016F5F7F4FCE01D3
:104FD00004965FD180927D0C90927E0CA0927F0C03
:104FE000B092800CC092790CD0927A0CE0927B0C3B
:104FF000F0927C0C26960FB6F894DEBF0FBECDBFA4
:10500000DF91CF911F910F91FF90EF90DF90CF90A4
:10501000BF90AF909F908F907F906F905F904F90D8
:105020000895E0912A0FF0912B0F0190F081E02D6F
:10503000682F8AE29FE01994009769F0FC010190C3
:105040000020E9F73197AF01481B590BBC018AE2F8
:105050009FE00C946A1680E090E00895EDCF8F9267
:105060009F92AF92BF920F931F93CF93DF93CDB7D1
:10507000DEB7A1970FB6F894DEBF0FBECDBF19A261
:10508000423008F44AE08E010F5D1F4F842E912CB0
:10509000A12CB12CA50194010E94034DE62FB9016A
:1050A000CA0101501109EA3014F4E05D01C0E95C65
:1050B000D801EC93232B242B252B61F7C801BCDFEF
:1050C000A1960FB6F894DEBF0FBECDBFDF91CF9192
:1050D0001F910F91BF90AF909F908F900895BC014A
:1050E00080E090E04AE0BBCF8BE599E0A5CFCF937D
:1050F000DF93BC0180E090E04AE0B1DFEC01F4DF37
:105100008C0F9D1FDF91CF910895DF92EF92FF9258
:105110000F931F93CF93DF93D82E7B01D42F890158
:1051200081E080938C0E10928B0EC091D60FCC2311
:1051300041F061E08C2F0E94FD1860E08C2F0E94EE
:10514000CE18C1E0C093DA10D092870EF092800E94
:10515000E0927F0E10926F0E1092700E1092710EF0
:105160001092720E10925F0E1092600E1092610EED
:105170001092620E10924F0E1092500E1092510E1D
:105180001092520E109211111092121110921311CE
:105190001092141110924B0E8FEF93E09093440EE7
:1051A0008093430E10923C0E10923B0E8091E70FBD
:1051B0000E94001A2091DF0F3091E00F2817390765
:1051C0001CF4C093370E02C01092370EC1E0C0939A
:1051D000DB10D093880E1093820E0093810E1092F4
:1051E000730E1092740E1092750E1092760E10922D
:1051F000630E1092640E1092650E1092660E10925D
:10520000530E1092540E1092550E1092560E10928C
:105210001511109216111092171110921811109268
:105220004C0E8FEF93E09093460E8093450E1092B4
:105230003E0E10923D0E8091E90F0E94001A2091BF
:10524000E10F3091E20F281739071CF4C093380E94
:1052500002C01092380EF894109220011092210191
:105260008CE49EEF9093250180932401809121018D
:10527000846080932101809173008160809373002A
:105280007894DF91CF911F910F91FF90EF90DF9075
:1052900008950F931F93CF93DF938C01EB0111D5EA
:1052A000E0EDF0E18DE0818383E08283D8018C9191
:1052B00083838881848311968C911197858389815A
:1052C000868312968C9187838A818087DF91CF9124
:1052D0001F910F9103C51092DA101092870E109251
:1052E000800E10927F0E1092DB101092880E10929A
:1052F000820E1092810EE7E8FEE080E0919191111C
:105300008F5F9EE0EB38F907C9F781111CC0F89454
:105310001092200110922101109225011092240177
:1053200080912101809321018091210180932101AD
:1053300080912101809321018091730080937300FB
:10534000789410928C0E0895CF93DF9375DEEC0164
:10535000CBDE8C0F9D1FDF91CF9108958EE599E0F4
:10536000F3DF20E080E090E0FC01E95DF14F308167
:1053700031112F5F019684309105B1F721111AC0C8
:10538000F8941092A0001092A1001092A500109223
:10539000A4008091A1008093A1008091A10080933E
:1053A000A1008091A1008093A10080917200809360
:1053B00072007894EC988FEF97E1909313028093AA
:1053C00012021092360E1092350E1092340E109278
:1053D000330E0895CF92DF92EF92FF920F931F93B7
:1053E000CF93DF93EC016A017B01E889F98982E0C0
:1053F00080834115514E61057105B1F060E079E09F
:105400008DE390E0A70196010E94034D89019A0166
:1054100001501109210931093695279517950795EE
:10542000980101151041A8F0E889F989108260E817
:1054300074E88EE190E0A70196010E94034DDA0125
:10544000C9010197A109B109B695A79597958795C7
:105450009C01EC85FD853083EE85FF852083188EC9
:10546000EC89FD8986E08083EA89FB8980818061FF
:105470008083EA89FB89808188608083EA89FB894F
:10548000808180688083EA89FB8980818F7D808329
:10549000DF91CF911F910F91FF90EF90DF90CF9010
:1054A00008954F925F926F927F928F929F92AF92E8
:1054B000BF92CF92DF92EF92FF926B017C01B42EEC
:1054C0009B01AC010E945D49882319F082E799E0B5
:1054D00027C026013701E89477F82FEF3FEF4FE719
:1054E0005FE7C301B2010E945D4981110DC02FEF3A
:1054F0003FEF4FE75FE7C301B2010E94B64B1816BA
:105500001CF486E799E00CC02FEF3FEF4FE75FE414
:10551000C701B6010E94E74818167CF48AE799E0B3
:10552000FF90EF90DF90CF90BF90AF909F908F90C3
:105530007F906F905F904F907FCD2FEF3FEF4FE7C1
:105540005FECC701B6010E94B64B87FDE7CF20E0B4
:1055500030E0A901C701B6010E94B64B87FF08C021
:105560008DE25FDD4C01F7FAF094F7F8F09402C099
:10557000812C912CA12C60E070E080E09FE3AB14C3
:1055800041F020E030E040E251E40E94C447A3949F
:10559000F6CF9B01AC01C701B6010E941E472B014B
:1055A0003C010E9431486B017C010E94BA4B9B0177
:1055B000AC01C301B2010E941D472B013C014AE02E
:1055C000C701B6014CDD7C01E80CF91CBB2021F0C1
:1055D0008EE227DDE80EF91EDB2CDD2019F120E03C
:1055E00030E040E251E4C301B2010E941B4C2B01A8
:1055F0003C010E9431484B01A12CB12C4AE0C5016D
:10560000B4012DDDE80EF91EC501B4010E94BA4BAC
:105610009B01AC01C301B2010E941D472B013C015B
:10562000DA94DBCFC701FF90EF90DF90CF90BF906F
:10563000AF909F908F907F906F905F904F90089564
:10564000CF93DF9342E02DDFEC014EDD8C0F9D1FE9
:10565000DF91CF910895CF93DF934AE000DDEC0115
:1056600043DD8C0F9D1FDF91CF910895CF93DF9382
:10567000AB01672B61F4E0912A0FF0912B0F0190A1
:10568000F081E02D682F8AE29FE0199505C0682F10
:1056900070E080E090E0E3DCEC0126DD8C0F9D1FE4
:1056A000DF91CF910895CF92DF92EF92FF92CF9347
:1056B000DF9397FF17C06B017C018DE2B2DCEC0138
:1056C00066277727CB016C197D098E099F094AE06F
:1056D000C6DC8C0F9D1FDF91CF91FF90EF90DF9084
:1056E000CF9008954AE0DF91CF91FF90EF90DF9047
:1056F000CF90B5CCCF93DF93BC01990F880B990B5A
:10570000D2DFEC01F1DC8C0F9D1FDF91CF9108956A
:10571000BC01990F880B990BC6CFCF92DF92EF9205
:10572000FF92DC01A03282E0B8070CF03EC0B7FD6A
:1057300006C0A53BB1052CF0A4EBB0E002C0A0E090
:10574000B0E08091091128E830E06901C81AD10859
:1057500087FDD394CC0CDD1CCC0CDD1C0D2C000C77
:10576000EE08FF0880910A1128E532E0281B310974
:1057700087FD3395220F331F220F331FA901330FEB
:10578000660B770B9A01AB012C193D094E095F0995
:105790000E94FD4C24EB30E040E050E00E94D74CEA
:1057A000C20ED31EE41EF51ED6019091081190334F
:1057B00098F58091091148E850E0481B510987FD90
:1057C0005395440F551F440F551FA417B5078CF070
:1057D00080910A1128E532E0281B310987FD3395B5
:1057E000220F331F220F331FAD012A173B070CF482
:1057F000A90142505109440F551F2FB7F894892F22
:1058000090E0FC01EE0FFF1F8E0F9F1FFC01ED507B
:10581000F04F528341832FBFFF90EF90DF90CF90E6
:10582000089580910811803308F051C061E086E04E
:105830000E94FD1880910811E82FF0E09F01220FCF
:10584000331FE20FF31FED50F04F9081907C966074
:1058500090831092091110920A116CE00E94E246A6
:105860009CE0899FB001112440E050E09A01260F8E
:10587000371FF901EE0FFF1F2E0F3F1FF901ED50EB
:10588000F04F908196FD16C04F5F5F4F4C30510531
:1058900069F78130F9F41092800082E080938100F2
:1058A0001092850010928400B19A80916F008260FE
:1058B00080936F00E0910811F0E0CF01880F991FED
:1058C000E80FF91FED50F04F808180648083809154
:1058D00008110895823061F4109290008093910035
:1058E000109295001092940088BB80937100E2CFD3
:1058F000833069F41092A00082E08093A10010929E
:10590000A5001092A40089BB80937200D3CF8111AF
:10591000D1CF1092200182E08093210110922501C5
:10592000109224018ABB80937300C4CF0F931F93FE
:10593000CF93DF93FC01A285B3859C918481892B51
:105940008C93A681B7819C918481809589238C93C7
:105950008BE090E00197F1F7A681B7819C9184815B
:10596000892B8C9383E290E00197F1F7A681B781B0
:105970009C918481809589238C93A285B3859C9189
:105980008481809589238C93A085B1859C918581A4
:10599000892309F056C0EF010E941F1A2C853D850E
:1059A000890120E030E00855194E2F4F3F4FDC01B0
:1059B000CB01800F911FA21FB31F8E879F87A88BDB
:1059C000B98BE885F98590818D81892361F40E94E6
:1059D0001F1A0E851F85288939890617170728077A
:1059E000390778F72EC00E941F1A2C853D85DC01EF
:1059F000CB01820F931FA11DB11D8E879F87A88B9E
:105A0000B98BE885F98590818D81892361F00E94A9
:105A10001F1A0E851F852889398906171707280739
:105A2000390778F70EC00E941F1A2C853D85255036
:105A300031094E855F85241B350BC901860F971FE1
:105A400002C080E090E0DF91CF911F910F91089507
:105A5000F1D186ED96E002DB80912D0290912E022D
:105A60003EDB8CE299E0FADA80912B0290912C02D5
:105A70003EDB1092291143E050E068E078E081E0DD
:105A80000E94D21A81E080938B0E10928C0E80912E
:105A9000D60F882341F061E00E94FD1860E08091FC
:105AA000D60F0E94CE1884E090E09093800E8093F1
:105AB0007F0E109223111092221110924B0E8FEF35
:105AC00093E09093440E8093430E10923C0E1092FC
:105AD0003B0E8091E70F0E94001A2091DF0F30915A
